:10000000481F00200904000005040000050400004A
:1000100000000000000000000000000000000000E0
:1000200000000000000000000000000005040000C7
:10003000000000000000000005040000CD040000E6
:10004000050400000504000005040000050400008C
:100050000504000005040000A10C000005040000D8
:10006000050400000504000005040000050400006C
:10007000050400000504000005040000050400005C
:10008000050400000504000005040000050400004C
:10009000050400000504000005040000050400003C
:1000A000050400000504000005040000050400002C
:1000B000000000000504000010B5064C2378002B5A
:1000C00007D1054B002B02D0044800E000BF0123FC
:1000D000237010BD1006002000000000F446000050
:1000E000084B10B5002B03D00749084800E000BFBB
:1000F00007480368002B00D110BD064B002BFBD036
:100100009847F9E70000000014060020F4460000BC
:10011000F4460000000000000120704700207047F6
:10012000012070474B7A012B0AD0002B05D0022BFF
:1001300009D0032B0AD00020704701234B72FAE745
:1001400000234B72F7E703234B72F4E702234B7251
:10015000F1E74B7A012B0AD0002B05D0022B09D0F6
:10016000032B0AD00020704702234B72FAE70223C8
:100170004B72F7E700234B72F4E700234B72F1E771
:100180008B78012B08D0002B03D0022B0CD0002041
:10019000704701238B70FAE70B78002B02D1002304
:1001A0008B70F4E70223FBE700238B70EFE78B787B
:1001B000012B08D0002B03D0022B0CD0002070475D
:1001C00001238B70FAE70B78002B02D100238B7090
:1001D000F4E70223FBE700238B70EFE70023B9224B
:1001E00052008354FF217222FF328154013A83541A
:1001F000002070470023B92252008354FF2172224D
:10020000FF328154013A83540020704710B5B9235E
:100210005B00C35C002B09D0013BDBB2B92252006A
:1002200083547222FF328256934201D0002010BDC7
:10023000FF217222FF32815401007131FF318C782D
:10024000CA7812022243012AF0D1013B7232FF32F6
:100250008354EBE7B8235B00C356002B05DBFF227A
:10026000B8235B00C254002070470022B8235B0013
:10027000C254F8E710B501218423FF33C154013B78
:10028000C35C012B10D8B9235B00C35C072B0BD8D0
:10029000002B01D1002A07D05C1CB921490044542D
:1002A000C0187430FF300270002010BD012284237A
:1002B000FF33C254013BC35C012B09D8B9235B0057
:1002C000C35C072B04D87222FF328256013201D060
:1002D00000207047002B06D100217422FF32815488
:1002E0000133013A8354B9225200835C7221FF31F9
:1002F0004354591C8154C0187430FF30FF230370DD
:10030000E6E7000010B50B79012B13D001225E2324
:10031000FF33C2540A4A113BC25002006132FF321D
:100320000433C25002220C33C2540022143BC25088
:10033000002010BD020008320100014B9847F7E78A
:10034000F108000010B50B79012B13D001225E23B8
:10035000FF33C2540A4A113BC25002006132FF32DD
:100360000433C25002220C33C2540022143BC25048
:10037000002010BD020008320100014B9847F7E74A
:100380000D09000010B50B79012B13D001225E235B
:10039000FF33C2540A4A113BC25002006132FF329D
:1003A0000433C25002220C33C2540022143BC25008
:1003B000002010BD020008320100014B9847F7E70A
:1003C0002909000010B50B79012B13D001225E23FF
:1003D000FF33C2540A4A113BC25002006132FF325D
:1003E0000433C25002220C33C2540022143BC250C8
:1003F000002010BD020008320100014B9847F7E7CA
:1004000045090000FEE70000F8B5234A234B9A4255
:1004100009D0224B204A03E01168196004330432EA
:100420001F498B42F8D31F4B02E000221A600433AD
:100430001D4A9342F9D31D4AFF211D4B8B43936004
:10044000FD3990235B001B4AD1501B4AD37803250A
:10045000AB4302242343D370D3780C27BB43082635
:100460003343D370154B987B3022904320221043A6
:100470009873997BB943314399739A7BAA4322437A
:100480009A730F4A516880230B4353600D4B984772
:100490000D4B9847FEE7C046F446000000000020E0
:1004A0000406002010060020480F002000ED00E0A8
:1004B0000000000000700041005000410048004171
:1004C00000400041D93D00000508000010B5114A68
:1004D0001368013313605168013151600E4A12886C
:1004E00093420AD80B4B5B680A2B0CD80B4B9847EE
:1004F000084A93680133936010BD0022054B1A60CF
:10050000074B9847EEE70022024B5A60054B98478D
:10051000ECE7C04630060020680A0020510A0000BF
:10052000751E0000E918000070B501221621012097
:10053000094CA047012217210120A04701221621C2
:100540000120064DA847012217210120A8470122BA
:1005500011210120A04770BD490D0000E50D0000EC
:1005600010B5012211210120014B984710BDC04652
:10057000FD0C000010B5074C2000074B98472000E9
:100580001030064B9847064B9847064B9847064B4A
:10059000984710BD680A002051200000F91900009A
:1005A000E91200008D090000A50E000010B5044BF3
:1005B0009847044B98470448044B984710BDC046E1
:1005C000610500009D1A0000B0010020351C0000EC
:1005D00030B583B000241AE01F4A04321F4910319D
:1005E0001F4B984701AB18700204120E5A7000029C
:1005F000000E987001A98B784A780978E000001BFA
:100600008500184840194069174DA8470134272C28
:100610001ADCE3001A1B9000124A80181B1B990079
:100620008B5C002BF2D08369002BD5D00A4A0432B0
:100630000A491031984701AB18700204120E5A7023
:100640000002000E9870D5E7084B98470248043026
:10065000074B984703B030BDB001002030060020A2
:10066000BD110000A00A0020691A0000591B0000FB
:10067000F50E000070B5404B186A596A0024002539
:100680001C625D6200234CE02022D21A0C009440D0
:100690000200DA4022434DE03849497A002957D117
:1006A0000F3A364B5A72E121C9001020344B98475B
:1006B00000205FE0314A927A002A4BD101322F4B61
:1006C0009A72E121C90010202D4B9847002051E07B
:1006D000002A0FD0D900CB1A99002A4B5B189868D2
:1006E000012A19D0254B9B7A012B43D10222234B9F
:1006F0009A723FE02149897A002906D0D900CB1AA5
:100700009900204B5B18D868EAE7D900CB1A99000A
:100710001C4B5B185868E3E70132184B5A72E1E74B
:100720000133272B25DC202252429A18ACD40C002E
:10073000D4402200D207F3D5DA00D21A9400114A2D
:10074000A25C002AECD00F218A4303D0102AA3D048
:10075000202AAFD0094A527A002AB9D00749897AAB
:100760000029B5D0D900CB1A9900064B5B1818693F
:10077000B6E7002070BDC046680A0020B001002026
:100780000D0A0000A00A002010B504004368002BE9
:1007900006D018490431184810309847002805D170
:1007A000962189005020154B984710BDE121C900C2
:1007B0001020124B984723780F229343102B0AD016
:1007C000202B01D0302B0DD00B488130FF30002181
:1007D0000B4B9847E9E7E3680649043106481030B7
:1007E0009847F1E7E368A2680249043102481030F3
:1007F0009847E9E7B0010020300600200D0A00000C
:100800007D1C000070B52C4B984701221621012059
:100810002A4CA047012217210120A047284B9847C6
:10082000284B9847284B9847284A294B536029481A
:10083000036A1B021B0AC02109060B430362002343
:10084000936007331360002217210120A047FF2186
:100850008223FF33204AD15415E0204B9A69DB698B
:1008600080239B00134212D100221D4B5A720EE0CE
:100870001A4B9A69DB691B070DD40022184B9A7238
:1008800009E0184B9847164B5B7A022BE5D0144BC6
:100890009B7A022BECD0144B9847041EF1D0012216
:1008A00017210120054DA8472000104B9847002232
:1008B00017210120A847E4E729050000FD0C0000EE
:1008C000810A000075050000AD05000010E000E0A1
:1008D000BF12000000ED00E030060020680A002092
:1008E000B0010020D1050000750600008907000056
:1008F00070B504000868496853681268024DA8473B
:1009000020606160002070BDD522000070B5040039
:100910000868496853681268024DA8472060616002
:10092000002070BD5D36000070B50400086849689D
:1009300053681268024DA84720606160002070BDB6
:100940005D310000F0B5C64600B507008846146862
:10095000556800220023200029000A4EB0470028D5
:100960000CD143461868596822002B00064CA0475A
:1009700038607960002004BC9046F0BD0120404200
:10098000F9E7C04679220000F5280000194B186AE3
:100990008021C90102000A431A62174B5A883F207E
:1009A00082431D2002435A805A88144802405A80CC
:1009B0005A8811435980124A5A80124B1A8892B2AF
:1009C0001A801A8820210A4392B21A801A88E021DC
:1009D000C9000A431A800C4AD021535C012003430A
:1009E00053541839535C0F2083430420034353545A
:1009F0007047C04600040040000C0040FFF0FFFFBD
:100A00001D400000003800420044004110B54B1E5C
:100A10009BB20A4A934210D800280ED0084B188087
:100A2000598001221A710748074B984780B2074B3B
:100A300018831A8802210A431A8010BD8D5B0000BA
:100A4000C80700208E5B00008120000000380042B3
:100A5000094B1B79002B0ED0074A1388013B9BB230
:100A60001380002B07D1054A138802218B43138082
:100A70000022014B1A717047C8070020003800425D
:100A80003A494A681E239A431C3B13434B60384A39
:100A9000936908210B439361364B374A9A829A8AAD
:100AA00002210A439A82334BDB689B07FBD5012264
:100AB000324B1A70314B1B78DB0704D52F4B5B7818
:100AC0005BB2002BF6DB01222C4B9A602B4B5B7840
:100AD0005BB2002BFADB2A4A284B5A60274B5B7823
:100AE0005BB2002BFADB8222D201244B5A80234BCB
:100AF0005B785BB2002BFADB02221E4B9A841D4B03
:100B0000DB68DB06FBD51F4A1A4BDA62194BDB6840
:100B1000DB06FBD5174A938C1B490B439384154B7B
:100B2000DB68DB06FBD5134A938C02210B439BB297
:100B30009384104BDB681B06FBD50E4BDB685B0612
:100B4000F7D50C4BDB68DB06FBD500220B4B9A601C
:100B50000A4B5B785BB2002BFADB0C4A074B5A60FE
:100B6000064B5B785BB2002BFADB7047004000411C
:100B700000040040000800400C060000000C00408B
:100B800001050100B905FF7D040A0000000703000C
:100B9000154B1B68002B26D1144BD96910220A4330
:100BA000DA61596920220A435A610F4A1100103153
:100BB0000F4B596311003031996318888021490027
:100BC0000143198018888021890001431980188801
:100BD0008021C9000143198018888021090101433F
:100BE0001980012313607047D007002000040040E3
:100BF0000048004170B504001F4B1B889B0704D5BB
:100C00001D4A13880220834313801B4B1B889B07BC
:100C1000FBD41A4E356D300010302B02C018102254
:100C2000174B98476B1C3365134B3F201A5C0F2101
:100C300029400F25AA430A431A54596C6022914354
:100C40005964596C0F4A1140802212040A435A64B5
:100C500020405A6C00020C490A401043586440215D
:100C60005A5C02242243D2B25A544D201A5C2243C9
:100C70001A54064B196070BD00480041D00700208F
:100C8000213E0000FFFF3FFFFFC0FFFF00E100E04B
:100C9000024A138802210B43138070470048004129
:100CA00030B5002200E00132124B1B6D9A421FDA70
:100CB00011493F240B5D0F2010400F25AB43034328
:100CC0000B554E23CB5C9B07EDD54D23CB5C9B078F
:100CD000E9D53F23CB5C1B07E5D14E33C85C02242A
:100CE0002043C85440200B5C2343DBB20B54DAE7AB
:100CF00030BDC046D00700200048004100280BD17D
:100D0000002A04D001238B400B4A136006E0012324
:100D10008B400A4A136001E0012800D07047002A86
:100D200004D101238B40064A1360F7E701238B406F
:100D3000044A1360F2E7C0461844004114440041DD
:100D4000944400419844004100281FD1012A0ED04C
:100D500001238B401E4A1360C0011E4B9C46604419
:100D6000411840310B78022213430B707047012366
:100D70008B40194A1360C001164B9C4660444118D1
:100D800040310B78022293430B70EFE70128EDD13D
:100D9000012A0ED001238B40104A1360C0010D4B75
:100DA0009C466044411840310B78022213430B707B
:100DB000DCE701238B400A4A1360C001054B9C46C7
:100DC0006044411840310B78022293430B70CDE709
:100DD000044400410044004108440041844400416F
:100DE00088440041012800D97047531E9A41C00130
:100DF000054B9C466044411840310B7892014020DD
:100E000083431A430A70EFE70044004110B50128FC
:100E100000D910BD022A0CD0012A18D0C001134BF2
:100E20009C466044411840310B78042293430B7078
:100E3000EFE7C0010D4B9C466044431840331A78DD
:100E4000042422431A7001238B404361E1E7C0016F
:100E5000064B9C466044431840331A7804242243CE
:100E60001A7001238B408361D3E7C04600440041E0
:100E7000002809D001280FD1A023094AD35888405F
:100E80001840431E98417047054B1B6A013088404B
:100E90001840431E9841F6E701204042F3E7C04660
:100EA0000044004110B501220E2101200F4CA04743
:100EB00001220F210120A04701221B210020A04771
:100EC00001221C210020A04700220E210120084CF5
:100ED000A04700220F210120A04700221B21002053
:100EE000A04701221C210020A04710BD490D000091
:100EF000FD0C000070B58378012B1BD0002B1DD09A
:100F0000022B19D00025C168002919D010232B43CA
:100F10005BB2DDB2427A012A1CD0002A12D0022A2A
:100F20001CD0032A1ED001221C2100202B4B9847E5
:100F3000002635E04025E6E72025E4E78025E2E7C6
:100F40000023E4E7002903D010251D43EDB2EAE7B2
:100F50000825FAE704231D43EDB2E4E702231D430D
:100F6000EDB2E0E701231D43EDB2DCE700220F21E3
:100F700001201A4CA04701222A400E210120A0473F
:100F8000C046C046C046C046C04601220F210120CF
:100F9000A047C046C046C046C046C0466D080136A0
:100FA000072EE3DD00221B2100200C4CA047C04689
:100FB000C046C046C046C04601221B210020A047B3
:100FC000C046C046C046C046C04600221B21002085
:100FD000A04700221C210020A04770BDFD0C00008E
:100FE00000B583B0537A012B2DD0002B09D0022BF2
:100FF0002FD0032B33D003221C4968461C4B984743
:101000000DE0D368002B18D003221A4901A8184B11
:10101000984701AB1A8869460A809B788B706B46AB
:101020001B786A4652781202FF2018406B469B7864
:101030001B041043184303B000BD03220E4901A84E
:101040000B4B9847E5E703220C496846084B984745
:10105000E5E703220A496846054B9847DFE7032284
:1010600008496846024B9847D9E7C046CC40000083
:10107000213E0000C8400000A8400000A44000003D
:10108000A04000009C40000000B583B09378012B85
:101090001AD0002B07D0022B1CD00322104901A824
:1010A000104B984704E003220F4901A80D4B9847C5
:1010B00001AB19785A781202FF2008409B781B0474
:1010C0001043184303B000BD0322084901A8054B93
:1010D0009847EDE70322064901A8024B9847E7E746
:1010E000CC400000213E00009840000094400000E9
:1010F0009040000000B583B05379002B0ED0937957
:10110000002B05D003220F4901A80F4B98470AE096
:1011100003220E4901A80C4B984704E003220C4916
:1011200001A8094B984701A90B881A0A1202FF204F
:10113000184010438A781204064B1840104303B03D
:1011400000BDC046BC400000213E0000C44000007D
:10115000C8400000FFFF00FF00B583B09379002B6B
:101160000ED05379002B05D003220F4901A80F4B55
:1011700098470AE003220E4901A80C4B984704E067
:1011800003220C4901A8094B984701A90B881A0AA8
:101190001202FF20184010438A781204064B1840B0
:1011A000104303B000BDC046BC400000213E00001B
:1011B000C0400000C8400000FFFF00FF30B583B012
:1011C0000C0003780F218B43591E8B41DBB2517900
:1011D00000291AD09579002D17D00169002906D071
:1011E0004D68002D03D011002000A8470300002BFC
:1011F00005D0032232496846324B984718E0032253
:10120000314968462F4B984712E0002925D0816864
:10121000002906D04D68002D03D011002000A847FA
:101220000300002B13D0032228496846254B98471A
:101230006B461B881A0A1202FF20184010436B46A7
:101240009A781204224B1840104303B030BD032299
:10125000204968461B4B9847EAE79179002917D047
:10126000C168002906D04D68002D03D01100200070
:10127000A8470300002B05D0032217496846114BED
:101280009847D5E70322154968460E4B9847CFE7A4
:101290004168002906D04D68002D03D011002000C0
:1012A000A8470300002B05D103220D496846054BD2
:1012B0009847BDE703220B496846024B9847B7E7BA
:1012C000BC400000213E0000AC400000C4400000D3
:1012D000FFFF00FFB4400000C0400000B04000002D
:1012E000B8400000C8400000F0B5D6464F4646461C
:1012F000C0B5FE4C1C2200212000FD4B98469847AB
:1013000020001C301C220021C047FA4B9A462300C3
:101310003833524623CA23C323CA23C312681A6030
:10132000F54B1B68A36501265423E6540025E565AB
:1013300025666566393BA366F04BE366F04B1B6898
:101340006367F04B1B68A3677023E654E5671033AF
:10135000E55004331C22E250EB4A0433E2502000F3
:101360008C301C220021C0472000A8301C22002104
:10137000C0472300C43352461C3283CA83C383CA86
:1013800083C312681A602300E0335246383283CA9E
:1013900083C383CA83C312681A602300FC33524696
:1013A000543283CA83C383CA83C312681A60D74B7B
:1013B0001968D74B1A68092399461033FF334846FA
:1013C000E0540433E1500433E2500433E550043375
:1013D000E5500433E5500433E550CE4B1A689A23A8
:1013E0005B00E6540433E2500433E5500433E55027
:1013F0000433E5500B220433E2500433E550C64B6E
:101400001968C64B1A68A8235B00E6540433E15000
:101410000433E2500433E5500433E5500E22043324
:10142000E2500433E55022006D32FF3257467037E8
:101430000BCF0BC20BCF0BC23B681360200089306F
:10144000FF301C220021C047B54B1F68B54B186800
:10145000B54B1968B54B1A68D2235B00E6540433C8
:10146000E7500433E0500433E1500433E2500433D6
:10147000E6500433E550AE4B1A68E0235B00E654B7
:101480000433E2500433E5500433E5500433E550AF
:101490000A220433E2500433E550A64B1A68EE23C7
:1014A0005B00E6540433E2500433E5500433E55066
:1014B0000433E5500F220433E2500433E5509E4BD1
:1014C00019689E4B1A68FC235B00E6540433E15014
:1014D0000433E2500433E5500433E550182204335A
:1014E000E2500433E550964B1A6885239B00E6547E
:1014F0000433E2500433E5500433E5500433E5503F
:101500001E220433E2500433E5508E4B1F688E4B8D
:1015100018688E4B19688E4B1A688C239B00E65412
:101520000433E7500433E0500433E1500433E25015
:1015300002220433E2500433E550864B1A689323A9
:101540009B00E6540433E2500433E5500433E55085
:101550000433E55004334A46E2500433E5507E4BF1
:101560001A689A239B00E6540433E2500433E55092
:101570000433E5500433E55010220433E2500433C1
:10158000E550764B1968764B1A68A1239B00E65408
:101590000433E1500433E2500433E5500433E550A2
:1015A00017220433E2500433E5500433E0180532C7
:1015B0000021C0476B4B1F686B4B18686B4B196859
:1015C0006B4B1A68AF239B00E6540433E750043397
:1015D000E0500433E1500433E25003220433E2507C
:1015E0000433E550634B1A68B6239B00E65404337A
:1015F000E2500433E5500433E5500433E55008224B
:101600000433E2500433E5505B4B1A68BD239B0062
:10161000E6540433E2500433E5500433E550043318
:10162000E55011220433E2500433E550534B19685E
:10163000534B1A68C4239B00E6540433E15004332F
:10164000E2500433E5500433E55016220433E250EF
:101650000433E5504B4B1A68CB239B00E65404330C
:10166000E2500433E5500433E5500433E5501F22C3
:101670000433E2500433E550434B1968434B1A6876
:10168000D2239B00E6540433E1500433E250043388
:10169000E5500433E55004220433E2500433E550AE
:1016A0003B4B19683B4B1A68D9239B00E654043323
:1016B000E1500433E2500433E5500433E55007228F
:1016C0000433E2500433E550334B1968334B1A6846
:1016D000E0239B00E6540433E1500433E25004332A
:1016E000E5500433E5501222043359E0A00A0020EB
:1016F000A53E00003C410000304100008910000080
:101700003841000034410000E10F00002841000092
:1017100024410000204100001C410000080F00206F
:10172000084100000041000004410000FC400000AE
:10173000DC400000E8400000F4400000480A0020BF
:10174000F84000005C0A0020540A0020400A0020F3
:10175000600A0020D8400000E4400000F040000093
:101760004C0A0020180F00200C0F0020200F002032
:10177000980A0020D4400000E0400000EC40000047
:10178000380A0020D04000000C4100001C0F00204F
:1017900010410000140F002014410000000F002031
:1017A000E2500433E5503A4B1A68E7239B00E654B5
:1017B0000433E2500433E5500433E5500433E5507C
:1017C00015220433E2500433E5500433E0180732A5
:1017D0000021C047F5239B00E2182E4B0C3383CB2E
:1017E00083C283CB83C21B6813602B4B19682B4BBE
:1017F0001A68FC239B00E6540433E1500433E250A2
:101800000433E5500433E5500622254BE2500433FF
:10181000E550244B1968244B1A68244BE6540433D2
:10182000E150234BE2500433E550224BE5501322A4
:101830000433E250204BE550204B1968204B1A68C6
:101840008523DB00E6541F4BE1500433E2501E4B6E
:10185000E5500433E55014221C4BE2500433E550AC
:101860001B4B19681B4B1A681B4BE6540433E150A1
:101870001A4BE2500433E550194BE5502022043353
:10188000E250184BE5501CBC90469946A246F0BD6C
:1018900018410000BC4100009C0A00203C0A0020C6
:1018A00004040000100F0020040F00200C040000AE
:1018B000140400001C04000024040000640A00203A
:1018C000440A00202C040000340400003C04000002
:1018D000580A0020500A0020440400004C04000074
:1018E000540400005C040000F0B5D6464F4646465E
:1018F000C0B582B03C4B1B68002000219860D960C5
:10190000002206210130394B9847002398463DE0DC
:1019100020234E469B1B9A4601235646F3409C4685
:1019200001264B469E4033000B431C006346134385
:101930001D008460C5600137042F1FDCBA002C4BEA
:101940009B18186C596D2B4B98470300264A10685A
:101950008168C268002B0DD043469B0043449946E2
:10196000B9444E46203EB246D2D4012653469E404C
:10197000B446D5E700230026B446D5E700220199F6
:1019800000981A4B984701239C46E0444346072B96
:101990000EDC174B42469200D158080000919B186C
:1019A0001B6A019301221900104B98470027C3E7D7
:1019B0000D4B1B689868D9689C69DD690600A643D1
:1019C0000A00AA431C695D69264330002A431100BE
:1019D000186159619868D9689861D96102B01CBCD6
:1019E00090469946A246F0BD28080020FD0C000054
:1019F000E4410000710E000070B5174B1860002420
:101A000008E0164BA200D0589B18196A0122144B0B
:101A100098470134072CF4DD00240FE0A2000F4B9F
:101A20009B181D6C5E6D0022310028000C4B9847FE
:101A30000222310028000B4B98470134042CEDDDC5
:101A4000054B1B68002000219860D960186159611E
:101A50009861D96170BDC04628080020E4410000AB
:101A6000490D00000D0E000010B5202807D84400D5
:101A70002018034C2254421CA1540230235410BDA0
:101A800038080020002303E00021034AD154013329
:101A9000622BF9DD7047C0463808002000B585B0DC
:101AA000244B9847002305E0234AD21800206421E4
:101AB00050540133C12252009342F5D91F4B029377
:101AC0001D4BE833FF330193002303936B461B88C0
:101AD0001B4A13406A46138013881A4A13406A4609
:101AE000138012888023DB0013436A461380128818
:101AF00080235B0113436A4613801388DB04DB0CED
:101B000013801388182293436A4613808423FF337B
:101B100053801388012213436A4613800A4B984767
:101B200069460620094B9847094B9847094B984747
:101B300005B000BD851A00003808002028100042BA
:101B4000FFFCFFFFFFF7FFFF910B0000F50B00000C
:101B5000910C0000091D000070B50022002111E069
:101B60000A4B585C80000A4C0459260C64209D18CE
:101B70002E54551C260A5D192E54951C5B191C54B5
:101B8000013103326229EBD970BDC046380800200C
:101B90004C420000F0B50024002116E04B00C318B1
:101BA0001A880D4D2A55671C1B881B0A0F221A40E4
:101BB0004B1C5B00C3181E8836013243EA55A21C39
:101BC0001B881B09AB54023103340729E6DD028A66
:101BD000014B1A73F0BDC046200A002010B50C213D
:101BE00010E01148836A114A525C5B0A5B021A4397
:101BF00082620D4B1B7EDB07FBD50B4B1B7E9B07CD
:101C0000F7D501390029ECDA002205210120084C22
:101C1000A047C046C046C046C046C0460122052176
:101C20000120A04710BDC046001C0042200A002031
:101C3000FD0C000010B50B4C206101220521012094
:101C4000094B9847012205210120084B9847084B72
:101C500098470D2200212000064B9847064B9847D5
:101C600010BDC046200A0020490D0000FD0C0000F8
:101C7000B51D0000A53E0000DD1B000030B587B09B
:101C800004001222002101A81C4B98470023E356B0
:101C9000002B03DBA378013B00220FE0022201AB03
:101CA0001A82F7E7510080252D0101A80D5203E0AB
:101CB0000120510001AD4853013B0132002B0FDBE5
:101CC000082A0DDC012161568B42EBD0E118C9785E
:101CD00049B20029ECD08020C000084180B2E8E77A
:101CE000A378002B02D1012201AB1A8001A8044B7A
:101CF0009847044B984707B030BDC046A53E00004A
:101D0000951B0000DD1B0000214A116A10230B43C4
:101D10001362204B5A883F218A4316210A435A8076
:101D20005A881D490A405A8059888022D2010A43A4
:101D30005A801A4A4C21535C0120034353541639EC
:101D4000535C0F208343022003435354144B196800
:101D5000144A0A401A601968134A0A401A6019683E
:101D6000124A0A401A601968114A0A401A60196832
:101D70001C229143103A0A431A6059680722914382
:101D8000596009221A731A6802210A431A607047BF
:101D900000040040000C0040FFF0FFFF0044004141
:101DA00000100042FFFFFCFFFFFFFFEFFFFFFFDF20
:101DB000FFFFFFBF10B5274A116A80230B43136250
:101DC000254B5A883F218A4319210A435A805A8851
:101DD00022490A405A8059888022D2010A435A80F7
:101DE0001F4BDE22995C012421439954BF215A5C88
:101DF0000F208243032002435A54DF201A5C2243FF
:101E00001A54585C0F220240302002435A54154B9A
:101E10001968154A0A401A601968144A0A401A607B
:101E20001968134A0A401A6019681C229143103A33
:101E30000A431A60596807229143596027221A738E
:101E40001968253A0A431A60064BDB699B07FBD4E5
:101E500010BDC04600040040000C0040FFF0FFFF32
:101E600000440041001C0042FFFFFCFFFFFFFFDFBA
:101E7000FFFFFFBFF8B5012203210120464CA04718
:101E8000012202210120A047012201210120A047B7
:101E9000012200210120A047404D2B689A789B1811
:101EA000DA78012601277A40324010210020A0472D
:101EB0002B689A789B18DA7852087A4032401121C0
:101EC0000020A0472B689A789B18DA7892087A400D
:101ED000324012210020A0472B689A789B18DA78AC
:101EE000D2087A40324013210020A0472B689A780C
:101EF0009B18DA7812097A40324015210020A04759
:101F00002B689A789B18DA7852097A4032400F2170
:101F10000020A0472B689A789B18DA7892097A40BB
:101F2000324016210020A0472B689A789B18DA7857
:101F300052B2D243D20F17210020A0472B689A78C3
:101F4000531E9A4103210120A0472B689A78013A39
:101F5000531E9A4102210120A0472B689A78023A29
:101F6000531E9A4101210120A0472B689A78033A19
:101F7000531E9A4100210120A0472A68937801331B
:101F8000DBB293709178C9B213890433994201DBB3
:101F900000239370F8BDC046FD0C0000340A0020F9
:101FA00070B5012203210120274CA0470122022104
:101FB0000120A047012201210120A0470122002188
:101FC0000120A047012210210020204DA847012216
:101FD00011210020A847012212210020A847012238
:101FE00013210020A847012215210020A847012223
:101FF0000F210020A847012216210020A847012216
:1020000017210020A847012210210020A04701220B
:1020100011210020A047012212210020A047012207
:1020200013210020A047012215210020A0470122F2
:102030000F210020A047012216210020A0470122E5
:1020400017210020A04770BD490D0000E50D0000DC
:1020500010B5094B1860102303800023837003E040
:10206000C2180021D1700133032BF9DD0023038155
:10207000024B984710BDC046340A0020A11F000043
:1020800003460B437FD4002243088B4274D30309D9
:102090008B425FD3030A8B4244D3030B8B4228D37A
:1020A000030C8B420DD3FF22090212BA030C8B42A0
:1020B00002D31212090265D0030B8B4219D300E040
:1020C000090AC30B8B4201D3CB03C01A5241830BC5
:1020D0008B4201D38B03C01A5241430B8B4201D375
:1020E0004B03C01A5241030B8B4201D30B03C01A9E
:1020F0005241C30A8B4201D3CB02C01A5241830A18
:102100008B4201D38B02C01A5241430A8B4201D346
:102110004B02C01A5241030A8B4201D30B02C01A70
:102120005241CDD2C3098B4201D3CB01C01A5241D7
:1021300083098B4201D38B01C01A524143098B4260
:1021400001D34B01C01A524103098B4201D30B0149
:10215000C01A5241C3088B4201D3CB00C01A52416E
:1021600083088B4201D38B00C01A524143088B4233
:1021700001D34B00C01A5241411A00D201465241CC
:10218000104670475DE0CA0F00D04942031000D3EB
:102190004042534000229C4603098B422DD3030A40
:1021A0008B4212D3FC22890112BA030A8B420CD350
:1021B000890192118B4208D3890192118B4204D379
:1021C00089013AD0921100E08909C3098B4201D3F9
:1021D000CB01C01A524183098B4201D38B01C01A33
:1021E000524143098B4201D34B01C01A52410309AA
:1021F0008B4201D30B01C01A5241C3088B4201D359
:10220000CB00C01A524183088B4201D38B00C01A05
:102210005241D9D243088B4201D34B00C01A5241DC
:10222000411A00D20146634652415B10104601D369
:102230004042002B00D54942704763465B1000D3F3
:10224000404201B5002000F005F802BD0029F8D099
:1022500016E770477047C0468446101C62468C469D
:10226000191C634600E0C0461FB500F015FF0028AA
:1022700001D40021C8421FBD10B500F06FFE4042DE
:10228000013010BD10B500F007FF002801DB002071
:1022900010BD012010BDC04610B500F0FDFE0028A5
:1022A00001DD002010BD012010BDC04610B500F0BA
:1022B0008FFE002801DC002010BD012010BDC046AB
:1022C00010B500F085FE002801DA002010BD0120C5
:1022D00010BDC046F8B54546DE4657464E460C038F
:1022E000E0B54E00C90F88460D00610A440F0C434B
:1022F000C70019035800DB0F9B464B0A510F0B43D5
:10230000760D400D1900D200D84500D1AEE0351A47
:10231000002D00DCF6E000280FD1134300D1DBE0F4
:102320006B1E002B00D037E1BA1A9742BF41641AE6
:102330007F42E41B0126170024E0C64B9E424DD08D
:1023400080231B041943382D00DD07E11F2D00DD1C
:1023500038E12020431B9A460B00504683409946A3
:1023600013004846EB401843030050468240501E7D
:102370008241E9401A43BA1A611A9742A4411700F0
:1023800064420C1B230262D56402650A002D00D151
:10239000DFE0280001F002FD0300083B1F2B00DDF9
:1023A000D2E020223C00D21A9D40D4409F402543D9
:1023B0009E4200DDC4E09E1B731C1F2B00DDF1E07C
:1023C000202238002900D21AD840914097402C0092
:1023D0000143781E8741DC4000260F437B0709D06C
:1023E0000F233B40042B05D03B1DBB42BF417F4226
:1023F000E4191F0023022CD5964B01369E4200D1D2
:102400009AE04546944BFF081C406007760564023D
:102410000743240B760D00212403230B0C0D8F4A58
:1024200024051C431440330523435B00ED075B0880
:102430002B43380019003CBC90469946A246AB4657
:10244000F8BD6446044300D111E2040067467B07EF
:10245000C6D145466007FF080743E4087D4B9E420E
:1024600030D024037605240B760DD4E7331A9A4630
:10247000002B78DD002831D076488642AED080200F
:10248000000401435346382B00DCE9E00A43511EA7
:102490008A410021D219BA42BF4109197C42170072
:1024A0000C192302D3D56B4B01369E4200D13AE181
:1024B0000120694B1C407B0807401F43E00707438E
:1024C00064088BE723003B4300D1CBE18022120359
:1024D00014432403240B9EE72E007FE708001043DB
:1024E00000D1B4E0581E002800D0DEE0BA18BA428D
:1024F0009B4164185B42E418170001262302A6D50D
:102500000226D5E7002D6ED1701C4005400D012834
:1025100000DCF9E0B81A844687428041E51A40425F
:102520002D1A280200D489E0D71BBA4292411C1B05
:102530005242A51AD84629E74546002400276AE7F3
:10254000454CF61A2C4049E73D00283885400027C5
:102550002EE7380001F022FC20301DE70A43511E0F
:102560008A41002107E7002B00D0F3E0701C4305EF
:102570005B0D012B00DCADE0364B984200D1D1E081
:10258000BA18BA42BF4164187F42E419E7075208FB
:1025900017436408060021E72E48854200D193E0E6
:1025A0001D00D0E629001F3EF140202B00D18DE018
:1025B0004022D31A9D402F437D1EAF4100240F437C
:1025C000002644E72B000800203BD8400300202DC4
:1025D00000D17DE04020451BA9400A43511E8A419D
:1025E00000211A43C7E6002E50D01A4EB04257D0F1
:1025F00080266B429946360434434B46382B00DD27
:10260000D6E01F2B00DD35E12026F51A2600AE406E
:10261000B2463E00DE40AC46350056462E43654687
:10262000AF407D1EAF41DC403743D71BBA429241D9
:102630000C1B5242A41A0600D846A3E6644667461D
:102640002C4300D0A2E600250026002706E71E0046
:10265000C4E6C046FF070000FFFF7FFFFFFF0F80BB
:102660001F2B63DC2020C31A080098409C46834639
:1026700053461000D84003005846184363469A401A
:10268000531E9A4153460243D94003E726003E4376
:1026900006D0EB439946002BC7D0944EB042ACD144
:1026A0000C0017000600D84698E6904B9A450BD0D0
:1026B0008246E7E6002800D09EE01800104300D1D3
:1026C000E9E01C001700D846884E87E6002572E72F
:1026D000002182E723003B43002E00D0ABE0002B1B
:1026E00000D1E7E00B00134300D177E6BA18BA42F5
:1026F000BF4164187F42E419230200D4F2E07C4B0E
:1027000017001C40060069E620003843002ED1D196
:1027100000285BD11C00144300D1A8E01C00170066
:10272000D8465BE606000024002797E650460B00DB
:102730002038C34099465346202B00D195E04023D2
:1027400050461B1A99400A43511E8A414B460021AC
:102750001A439FE6002E30D126003E4367D0DB436C
:102760009A46002B1CD0614EB04260D05346382BA5
:1027700000DD96E01F2B00DD9FE02026F31A2600E7
:102780009E409C46B34653463E00DE4033005E46C4
:102790001E4363469F407B1E9F415346DC403743A8
:1027A000BF189742924164185242A418060078E676
:1027B00027437C1EA741002437E74C4EB04236D059
:1027C00080265B4236049A463443CFE71800104314
:1027D00000D103E6B81A84466745AD41E01A6D4260
:1027E000401B050200D42CE6D71BBA4292411C1BA9
:1027F0005242A41AD846F1E51800104300D163E70D
:10280000F808670707438020E4080003044208D063
:10281000DD08054205D1D208590711430F002C00ED
:10282000D8467B0FE4001C43FF00304ED6E50C0079
:1028300017000600D2E5002B38D00B00134300D15F
:1028400042E7F808670707438020E40800030442D2
:10285000E7D0CB080342E4D1D208490711430F0067
:102860001C00DEE700270024D5E500216BE70025EA
:102870000027F3E54E462500203EF5404B462E004E
:10288000202B2DD04025ED1AAC4027437C1EA741BC
:1028900000243743C9E6802400252403134E002773
:1028A000DCE527437C1EA741002479E70C001700D4
:1028B0000E4E93E50C00170090E556462300203E8F
:1028C000F34099465346202B0ED0402356469B1B7F
:1028D0009C4027437C1EA7414B4600241F435FE7D3
:1028E0000024D2E71700B2E50024F2E7FF0700005A
:1028F000FFFF7FFFF0B557464546DE464E46E0B542
:102900004C000E0387B0834692461D008046360B6E
:10291000640DCF0F002C4FD06F4B9C4235D08023DD
:10292000420F1B04F600134333439946C3009846F5
:102930006A4B00269C460023644403932B031B0B25
:102940009B466B00ED0F50465B0D01955ED0624AD1
:10295000934253D05A46D1008022400F12040243C2
:102960000A4393465246D1005C4A9446002263448F
:102970003800684084460290E41A16430F2E00D9AE
:10298000B4E0574BB6009B599F460300334399462A
:102990006CD100239846023308260393CEE7CB463A
:1029A0004146039A0197022A65D1019B4A4C9C46F5
:1029B0000023002298466BE00300334399464ED033
:1029C000002E00D1BCE1300001F0E8F903000B3B20
:1029D0001C2B00DDACE11D22D31A5A460100DA405F
:1029E00008398E401300334399465B468B40984626
:1029F00000233C4C0026241A03939FE751465A4675
:102A0000114329D1002293460232B1E759460143CE
:102A10001ED05B46002B00D19EE1584601F0BEF966
:102A200003000B3B1C2B00DD8FE102005946083AE6
:102A300091408B461D21CB1A5146D9400B00594677
:102A40000B4351469B469140264B00221B1A8FE7B1
:102A5000002301229B468BE75146032288E700238F
:102A60009846013304260024039367E70323B14605
:102A700003930C2662E7032A00D15CE2019B012A42
:102A800000D0E4E113409C46002300240022984635
:102A900000211203130B0A0D12051A432305124CD1
:102AA00040462240134362465B00D2075B08134353
:102AB000190007B03CBC90469946A246AB46F0BD13
:102AC000002380229C4612039846034CE0E7002333
:102AD000014C00229846DBE7FF07000001FCFFFFE6
:102AE0004C4600000DFCFFFFFFFF0F80D94500D9C9
:102AF00039E100D134E1002346464D469A46013C77
:102B00005B460A0E1B021A430B02170C03931304B5
:102B10001B0C390028009046019301F0B5F8020023
:102B2000019B83465A4328003900914601F032F94F
:102B3000350C09040D43A9450DD95B464544013BBD
:102B4000A84500D93AE1A94500D837E102235B4204
:102B50009C464544E3444B46EB1A39001800049365
:102B600001F092F8019B050043433900049899460F
:102B700001F010F9330409041B0C0B43994509D9E2
:102B800043446A1E984500D91AE1994500D817E1D7
:102B9000023D43444A469B1A5A4612042A4303996B
:102BA0009346100C0A0C914609045A46090C4E46ED
:102BB0000D001204120C45430591514372437043BA
:102BC00052190E0CB218954203D980256D02AC46FD
:102BD0006044150C09041204090C28185218834289
:102BE00000D2CEE000D1C8E01D1A53469E1AB2456D
:102BF00092415242AB1A9A46984500D117E13900EA
:102C0000180001F041F8019B05004343390050468C
:102C1000049301F0BFF804980B04310C1943884267
:102C200009D941446B1E884500D907E1884200D884
:102C300004E1023D4144049BCB1A1800390004937F
:102C400001F022F8019B8246434339000498019326
:102C500001F0A0F801980B043104090C19438842D3
:102C60000DD953464144013B884500D9E8E08842EC
:102C700000D8E5E002235B429C464144E244019BCC
:102C80002D04CE1A51462943059D4F462A000B04B8
:102C9000080C1B0C5A4345437B4378435B19170CC4
:102CA000FB189D4203D980256D02AC4660441D0C83
:102CB00012041B04120C28189B18864200D293E0C1
:102CC00000D18EE001231943A04BE318002B00DC58
:102CD00099E04A0700D09EE05A46D20106D55A46EE
:102CE0009B4B1A4080239346DB00E318994A93429A
:102CF00068DD0123029A984C1A40002394469846B6
:102D00000022C5E680224B46120313420AD05B46DE
:102D1000134206D11A431203120BAC4688468E4C5E
:102D2000B6E64B461A431203120BBC468A4CAFE67A
:102D300003005A46283B9A4000239146984657E69E
:102D4000584601F02BF8203040E603005246283B5D
:102D50009A400021934677E601F020F820305FE6A4
:102D6000884500D2C7E64B46DE075D0843465B0850
:102D70001E434346DB079A46C2E60025924500D330
:102D800033E7039E5946B446E244B245AD416D4235
:102D90004544EB180139984507D2984200D97FE0A5
:102DA00000D1BCE01D1A8B461FE79845FAD1039D60
:102DB0005545F2D943468B461D1A16E79B46CAE68F
:102DC0001500E7E65A46C90852070A435B059046D4
:102DD0005C0D5A460123029952021940120B8C468F
:102DE00056E6002B00D16FE746444A1EB04529D96C
:102DF0001100864200D065E7039A934200D061E754
:102E000062E7012149420120C21A382A21DD029BD2
:102E100003409C4638E60F220A40042A00D15BE7B3
:102E20000A00111D914292415242934454E7474B8C
:102E3000E318002BE5DD01225242F2E71D00FAE61D
:102E40009A461CE7B04239D86ED011003AE7029397
:102E50003AE71F2A3CDC20239B1A0C005846994075
:102E600098404B1E99415B46D440D34020430843D1
:102E70001A00430709D00F230340042B05D001009B
:102E8000081D88429B415B42D21813023AD50123A8
:102E9000029A01241A400023944698460022F7E53E
:102EA000022149428C46039DE344AC46E244AA45D4
:102EB000AD416D424544ED182D1A96E68A1E0399E0
:102EC0004D008D42894149424144761803958FE770
:102ED0001F204042C31A5846D8400300202A28D059
:102EE00040205D46821A954029434A1E914119436C
:102EF000072300220B4009D00F2300220B400800BB
:102F0000042BBDD1010053075202120BC90819430B
:102F1000012388460299002419408C46B8E55245A1
:102F2000BED88B46002560E6039D9D42C6D31100A6
:102F300062E70025D8E780225B4612031A43019B13
:102F40001203120B9C468846034CA1E5FF030000C8
:102F5000FFFFFFFEFE070000FF070000F0B54F4631
:102F60004646D6465C00C0B51F03DB0F9A46174B9A
:102F70000E034D0084468046360B6D0DC90F9146F9
:102F80003F0B640D01209D4208D09C4201D0A54218
:102F90000BD01CBC90469946A246F0BD6346334315
:102FA000F7D1AC42F5D13A43F3D10120BE42F0D182
:102FB000C845EED1514507D0002DEAD163461E43E6
:102FC0003000461EB041E4E70020E2E7FF070000C2
:102FD000F0B54546DE4657464E46E0B51F033D0B6D
:102FE0002C4F0E034C00AB465D008446360B640D3F
:102FF000C90F90466D0DDB0FBC422AD0254FBD4254
:103000002DD0002C0FD13043070081467842784103
:10301000C0B2002D17D15F463A4314D14B46002071
:10302000002B0AD006E0002D02D15846024301D001
:10303000994218D04842012108433CBC9046994629
:10304000A246AB46F0BD0028F2D00120013B184358
:10305000F3E737000743D1D002204042EDE75F4657
:103060001743CED0F8E7AC42E4DC03DA481E012176
:103070000843E2E75E45DDD806D000205E45DCD29D
:103080000123481E1843D8E7C445D3D80020C445BF
:10309000F6D3D2E7FF070000F0B54E464546DE46C0
:1030A00057465C00E0B51F03DB0F99462A4B0E0321
:1030B0004D00C90F8446360B6D0D8B4690463F0B75
:1030C000640D9D4220D0244B9C4222D0002D12D171
:1030D000304343424341DBB2002C1FD0002B0CD0C5
:1030E0004B460120013B034318003CBC90469946E7
:1030F000A246AB46F0BD002C16D0CB4517D05B46A0
:10310000594201230B43EFE7310002230143EBD186
:10311000D9E7390002231143E6D1D7E73A43DDD19D
:1031200000230028E0D0EAE73A43E6D1E7E7A542EA
:10313000E5DC05DBBE42E2D807D00023BE42D3D295
:103140005946012301390B43CEE7C445D7D80023A4
:10315000C445F5D3C8E7C046FF070000F0B55746A1
:103160004546DE464E46E0B50C0398464E00230B1E
:1031700087B0070092469B46760DCD0F002E6BD090
:103180006D4B9E4235D080245B46420F2404DB0009
:1031900014431C43C3009946684BA3469C46002336
:1031A00000276644029343461C035A00DB0F504637
:1031B000240B520D984600D176E05F4B9A426DD0B9
:1031C0008023410F1B040B435C49E4008C461C43E5
:1031D000C300002062444146B6186940721C019148
:1031E000944607430F2F00D9B0E0554ABF00D2598B
:1031F00097465B460343994600D087E000239B46F1
:10320000023308270293CEE742460192022867D094
:10321000032800D10EE2012800D062E1002300243F
:103220000022994601990140CDB2002112030B0DF5
:10323000120B1B051343434A240513401C4364002F
:10324000ED0764082C434846210007B03CBC90467B
:103250009946A246AB46F0BD034399464FD05B4624
:10326000002B00D189E1584600F098FD03000B3B8C
:103270001C2B00DD7AE11D22D31A3A0001005C46C6
:10328000DA4008398C4013008F4023439B46B946EF
:1032900000232D4E0027361A029384E7534623431A
:1032A0002AD10024022096E75346234320D0002C45
:1032B00000D157E1200000F071FD03000B3B1C2BF7
:1032C00000DD49E11D21CB1A51460200D940534689
:1032D000083A944093400C431B4A121A00207AE7A4
:1032E0000125019B144C1D400023002299469CE7B8
:1032F0000024002201206EE7534603206BE70023E1
:103300009B4601330427002602934CE703238146A2
:103310000C27029347E780220023002512039946D9
:10332000054C82E75C464B4602986FE75C464B468D
:10333000019502986AE7C046FF07000001FCFFFF05
:103340008C460000FFFF0F800DFCFFFF4A464946F8
:10335000170C1A0C1B041B0C08041900000C414329
:103360001500884619007D43794303958946290055
:10337000150045434D44029545462D0CAA46029D35
:103380005544A94506D98A46802149028946CA443E
:1033900051460391290C0491414609042D04090C5E
:1033A00088462900250C24044144240C0591210061
:1033B00041438846210079438A4668434146504448
:1033C0008146080C48446F43824503D98021490255
:1033D00089464F44010C89463900494402914146CF
:1033E0000F0404993F0C88460004C01980444146EC
:1033F000049159460F0C0904090C884659438A4622
:1034000039005143894641464A435146090C8B468F
:103410007B43D2185A44934203D980235B029B46D4
:10342000D94451460904090C8A46414661437C430C
:10343000130C12044B445244A1468A463C004146B8
:103440006C434D4351464D440F0C7D19A94503D99A
:103450008021490288464444049F0399B846414468
:103460008B468345804141428846514608042F04DB
:10347000000C3F1858460299101889469042924114
:103480004F44BA46524299469346C244D144CB4433
:103490008F42BF41C245894199459B419345924125
:1034A0007F4249422D0C52420F435B4213437F1926
:1034B000FF185B463C19DB0D059A64021C4343026E
:1034C00013435D1EAB415A46C00D034352021343E2
:1034D000E20156D501205A0803401343E207134383
:1034E00064085A48604400284DDD5A0709D00F226D
:1034F0001A40042A05D01A1D9A429B415B42E418E7
:103500001300E20104D58020514AC00014406044F9
:10351000504A904200DDE3E60125DB0862071A43CA
:103520006402019B9146220B4405640D1D407CE61C
:10353000802259461203114208D0144206D1224378
:103540001203120B45469946434C6EE65B461A43FE
:103550001203120B404C68E603005446283B9C4083
:103560000023B9E600F01AFC2030A6E60300283B51
:103570009F400023BB4699468AE600F00FFC2030AE
:1035800074E6B446ADE701252A1A382A06DD019B08
:1035900000241D4000230022994646E61F2A21DC14
:1035A00020252000AD1A1E00AB40A840D6405D1E6D
:1035B000AB4130431843D440430709D00F230340A5
:1035C000042B05D00300181D98429B415B42E41870
:1035D000230221D50125019B01241D400023002247
:1035E000994622E61F2521006D42281AC140080095
:1035F000202A1DD05F35AA1A944023435C1EA341A4
:10360000072503431D400022002D09D00F2200246E
:103610001A401800042AD6D1030065076402220B61
:10362000DB082B4301259946019B00241D40FCE546
:103630000024E2E7802201251203224301991203AC
:10364000120B0D409946044CEFE5C046FF03000005
:10365000FFFFFFFEFE070000FF070000F0B5464633
:10366000D6464F460C03C0B5CD0F4E00610A440F3D
:103670000C43C1005800400D84468A460F001903D0
:10368000500F490A0143C648760DA846DB0FD20009
:10369000844500D1D8E001204340AB4200D1A6E0F0
:1036A0006046351A002D00DC05E1002810D10B0022
:1036B000134300D1D7E06B1E002B00D04BE15346E3
:1036C0009F1ABA458041641A4042241A01261EE01E
:1036D000B34B9E4248D080231B041943382D00DD94
:1036E00019E11F2D00DD4CE120230F005B1B1000B2
:1036F0009A409F40E840531E9A41E94007431743D0
:103700005346DF1B611ABA45A44164420C1B2302D5
:1037100000D4C5E06402650A002D00D1F6E028005F
:1037200000F03CFB0300083B1F2B00DDE9E02022FA
:103730003C00D21A9D40D4409F4025439E4200DD6C
:10374000DBE09E1B731C1F2B00DD0AE120223800EA
:10375000D21A290097402C009140D8407A1E9741F8
:10376000DC40002601430F437B0709D00F233B4079
:10377000042B05D03B1DBB42BF417F42E4191F0013
:10378000230225D5864B01369E4200D1AFE0854B02
:1037900001251C4043466207FF0864027605174373
:1037A000240B760D1D4000212403230B0C0D7E4AB3
:1037B00024051C431440330523435B00ED075B08DD
:1037C0002B43380019001CBC90469946A246F0BD18
:1037D000012543466207FF081743E4081D40704B6C
:1037E0009E4236D024037605240B760DDBE7634634
:1037F000F31A002B00DC94E06046002835D06848BE
:103800008642B1D080273F043943382B00DCFDE0ED
:103810000A43170000217A1E9741574457458041BB
:10382000091944420C1923023AD55D4B01369E42D8
:1038300000D14BE101225B4B1C407B0817401F432A
:10384000E207174364088FE70800104300D024E71D
:1038500021E723003B4300D1B9E180221203144346
:103860002403240B9FE72E007EE70800104300D1BD
:10387000CAE0581E8446002800D0E7E05244524572
:10388000804164184042241817000126230207D5FE
:103890000226CFE764462C4300D1B3E12C006746F3
:1038A0007B0700D062E76307FF081F4301254346FB
:1038B000E4081D4093E7002D78D1751C6D056D0D52
:1038C000012D00DCF2E05046801A8245BF41651AA6
:1038D0007F42ED1B8446280200D48CE05046171A24
:1038E000BA4292410C1B5542651B984614E70125CC
:1038F000434600241D40002755E72A4CF61A2C4069
:1039000032E73D0028388540002717E7380000F0EF
:1039100045FA203006E70A43170000217A1E974136
:10392000EEE6002B00D0E5E0731C9C465B055B0DCA
:10393000012B00DC9FE01A4B9C4500D1C5E05244AE
:1039400052458041641840422418E7075208174343
:103950006408664608E71248854200D185E01D00EC
:10396000BCE629001F3EF140202B00D17FE0402221
:10397000D31A9D402F437D1EAF4100240F430026E4
:103980008EE72B000F00203BDF40202D71D040231D
:103990005D1BA9400A43511E8A4100211743AFE62F
:1039A000FF070000FFFF7FFFFFFF0F80002E3ED0CC
:1039B000B34EB44545D0802636046D423443382D8D
:1039C00000DDA8E01F2D00DD1FE120262700504666
:1039D000761BB740E84007435046B040461EB04112
:1039E000EC403843171ABA4292410C1B5242A41AB7
:1039F000664698468BE6644667462C4300D08BE6C5
:103A0000002500260027EAE61E00ADE61F2B60DC3D
:103A10002027F81A0F00844687401000D84007433B
:103A200060468240501E8241D9401743F5E6260089
:103A30005046064305D0ED43002DD3D0904EB445FB
:103A4000BDD10C001700664698468DE68C4883422F
:103A50000BD06346D9E6002D00D096E00800104355
:103A600000D1E2E00C0017009846854E7CE6002568
:103A700080E700218EE7230050460343002E00D04C
:103A8000A8E0002B00D1DEE00B00134300D16BE671
:103A900052445245804164184042241817002302C2
:103AA00000D4FDE6774B66461C405DE62500504697
:103AB0000543002ECFD1002D4FD10C00144300D16F
:103AC000A0E00C00170098464EE66646002400274A
:103AD00085E61F000800203FF8400700202B00D19A
:103AE0008EE04020C31A99400A43511E8A410021AA
:103AF000174392E6002E14D126005046064362D0AA
:103B0000DB43002B5CD187189742924164185242E4
:103B1000A418664687E650462043441EA041002470
:103B200060E7574EB4454ED0802636045B4234439E
:103B3000382B00DD7FE01F2B00DD8BE020262700E7
:103B40005046F61AB740D84007435046B040461E8C
:103B5000B0410743DC40BF18D6E70D00154300D144
:103B600002E65046801A8245BF41651A7F42ED1B2E
:103B70008446280200D48DE65046171ABA42924174
:103B80000C1B5242A41A9846EEE50D00154300D1D5
:103B90006BE750466707C00807438020E40800032E
:103BA000044207D0CD08054204D12C009846D7081E
:103BB00049070F437B0FE4001C43FF00304ED3E561
:103BC0002F4EB445B4D10C0017006646CCE5002753
:103BD0000024E8E5002B39D00B00134300D144E763
:103BE000C008670707438020E40800030442E1D0CF
:103BF000CB080342DED1D70849070F431C00D9E7A1
:103C0000002171E700250027E9E52E002700203E6E
:103C1000F740202D2FD04026751BAC405046204346
:103C2000441EA04100243843DCE680240025240300
:103C3000134E0027D3E5504620430700781E8741E6
:103C40000024BF1860E70C0017008DE50C0017007A
:103C50000B4E89E51E002700203EF740202B0CD09C
:103C60004026F31A9C4050462043441EA04107437F
:103C70000024BF1848E70024D0E70024F3E7C0463B
:103C8000FF070000FFFF7FFF002243088B4274D331
:103C900003098B425FD3030A8B4244D3030B8B424D
:103CA00028D3030C8B420DD3FF22090212BA030C56
:103CB0008B4202D31212090265D0030B8B4219D337
:103CC00000E0090AC30B8B4201D3CB03C01A524157
:103CD000830B8B4201D38B03C01A5241430B8B429F
:103CE00001D34B03C01A5241030B8B4201D30B0388
:103CF000C01A5241C30A8B4201D3CB02C01A5241AF
:103D0000830A8B4201D38B02C01A5241430A8B4271
:103D100001D34B02C01A5241030A8B4201D30B025A
:103D2000C01A5241CDD2C3098B4201D3CB01C01A74
:103D3000524183098B4201D38B01C01A524143097E
:103D40008B4201D34B01C01A524103098B4201D36C
:103D50000B01C01A5241C3088B4201D3CB00C01AD9
:103D6000524183088B4201D38B00C01A5241430851
:103D70008B4201D34B00C01A5241411A00D2014676
:103D8000524110467047FFE701B50020FEF762FA86
:103D900002BDC0460029F7D076E770471C210123F9
:103DA0001B04984201D3000C10391B0A984201D31E
:103DB000000A08391B09984201D30009043902A2FC
:103DC000105C40187047C046040302020101010163
:103DD000000000000000000070B50D4E0D4D0024E5
:103DE000AD1BAD1005D0A300F35801349847A54290
:103DF000F9D100F06DFC084E084D0024AD1BAD104C
:103E000005D0A300F35801349847A542F9D170BDFD
:103E1000DC460000DC460000DC460000E446000012
:103E2000F0B505000F2A2FD90B0003439B0734D1AF
:103E300016000C000300103E350901352D0145190F
:103E400027681F6067685F60A7689F60E768103435
:103E5000DF6010339D42F3D10F239E431036851946
:103E600089191340032B1AD91E1F0023B4080134EB
:103E7000A400CF58EF500433A342FAD10324A64341
:103E8000331D2240C918ED18002A05D00023CC5C50
:103E9000EC5401339342FAD1F0BD0500F6E71A0065
:103EA000F2E7C046F0B5830743D0541E002A3FD046
:103EB000CEB20200032502E01A00013C38D3531CA5
:103EC00016702B42F8D1032C2AD9FF220A40150282
:103ED00015432A0415430F2C14D927001A00103F4C
:103EE0003E09013636019E19156055609560D56012
:103EF00010329642F8D10F2297431037DB19144045
:103F0000032C0DD91A00271FBE080136B6009E19D2
:103F100020C2B242FCD1032297430437DB1914407C
:103F2000002C05D0C9B21C19197001339C42FBD179
:103F3000F0BD14000300C6E7034B10B5002B02D000
:103F4000024800F005F810BD00000000613F0000CD
:103F500010B5010000230022002000F01FF810BD62
:103F600070B5094B094CE41AA41009D0084AA518E9
:103F7000AD00ED182B68013C9847043D002CF9D1A9
:103F800000F0B0FB70BDC046F0460000F4460000F3
:103F9000FFFFFF3F7047C0467047C046F0B54E4632
:103FA0004546DE465746E0B5364D83B006002868E4
:103FB00098460F009146FFF7EDFF334B1C68A42392
:103FC0005B00E058002852D043681F2B13DC5A1CBA
:103FD0000192002E28D1019A02339B0042601F50AB
:103FE0002868FFF7D9FF002003B03CBC90469946F3
:103FF000A246AB46F0BD254B002B3DD0C82040006B
:1040000000E000BF002837D0A42200235200A158AE
:1040100043600160A050403283500432835001332A
:1040200001930023002ED6D09A00924682444A463D
:10403000882154466250C4225200914681444A4627
:104040008739994012688B460A4394464A4661462E
:104050001160842241465200A150022EBBD10200C1
:104060005C468D32FF3211680C431460B3E72000C8
:104070004D30FF30E050A7E72868FFF78DFF0120A3
:104080004042B1E700060020CC46000000000000DE
:1040900032BE0000C82800000040C800D200000066
:1040A00032BE0000C82800000040C800000604001E
:1040B00000070000000208000303030000C8A0007E
:1040C00000D200000040C8003C3C3C00050100005C
:1040D0000000002010000020200000203000002000
:1040E00040000020500000206000002070000020F0
:1040F0008000002090000020A0000020B0000020E0
:10410000C0000020D0000020E0000020F0000020CF
:1041100000010020100100202001002030010020BB
:1041200040010020500100206001002070010020AB
:104130008001002090010020A00100200900000063
:10414000000000000000000000000000000000006F
:104150000C00000000000000010000000000000052
:104160000000000000000000000000000D00000042
:10417000000000000100000000000000000000003E
:1041800000000000000000001A0000000000000015
:10419000100000000000000000000000000000000F
:1041A000000000001D000000F510000001000000EC
:1041B00000000000000000000000000000000000FF
:1041C00019000000000000002000000000000000B6
:1041D00000000000000000000000000005000000DA
:1041E0005911000001000000010000000100000062
:1041F00001000000000000000000000000000000BE
:104200000000000006000000070000000800000099
:104210000900000004000000050000000600000086
:104220000700000000000000000000000100000086
:1042300001000000010000000A0000000B00000067
:104240000A0000000B0000000C000000244992004E
:10425000264992003449920036499200A4499200BE
:10426000A6499200B4499200B6499200244D9200AA
:10427000264D9200344D9200364D9200A44D92008E
:10428000A64D9200B44D9200B64D92002469920062
:10429000266992003469920036699200A4699200FE
:1042A000A6699200B4699200B6699200246D9200EA
:1042B000266D9200346D9200366D9200A46D9200CE
:1042C000A66D9200B46D9200B66D920024499300E1
:1042D000264993003449930036499300A44993003A
:1042E000A6499300B4499300B6499300244D930026
:1042F000264D9300344D9300364D9300A44D93000A
:10430000A64D9300B44D9300B64D930024699300DD
:10431000266993003469930036699300A469930079
:10432000A6699300B4699300B6699300246D930065
:10433000266D9300346D9300366D9300A46D930049
:10434000A66D9300B46D9300B66D930024499A0056
:1043500026499A0034499A0036499A00A4499A009D
:10436000A6499A00B4499A00B6499A00244D9A0089
:10437000264D9A00344D9A00364D9A00A44D9A006D
:10438000A64D9A00B44D9A00B64D9A0024699A0041
:1043900026699A0034699A0036699A00A4699A00DD
:1043A000A6699A00B4699A00B6699A00246D9A00C9
:1043B000266D9A00346D9A00366D9A00A46D9A00AD
:1043C000A66D9A00B46D9A00B66D9A0024499B00C0
:1043D00026499B0034499B0036499B00A4499B0019
:1043E000A6499B00B4499B00B6499B00244D9B0005
:1043F000264D9B00344D9B00364D9B00A44D9B00E9
:10440000A64D9B00B44D9B00B64D9B0024699B00BC
:1044100026699B0034699B0036699B00A4699B0058
:10442000A6699B00B4699B00B6699B00246D9B0044
:10443000266D9B00346D9B00366D9B00A46D9B0028
:10444000A66D9B00B46D9B00B66D9B002449D20005
:104450002649D2003449D2003649D200A449D200BC
:10446000A649D200B449D200B649D200244DD200A8
:10447000264DD200344DD200364DD200A44DD2008C
:10448000A64DD200B44DD200B64DD2002469D20060
:104490002669D2003469D2003669D200A469D200FC
:1044A000A669D200B469D200B669D200246DD200E8
:1044B000266DD200346DD200366DD200A46DD200CC
:1044C000A66DD200B46DD200B66DD2002449D300DF
:1044D0002649D3003449D3003649D300A449D30038
:1044E000A649D300B449D300B649D300244DD30024
:1044F000264DD300344DD300364DD300A44DD30008
:10450000A64DD300B44DD300B64DD3002469D300DB
:104510002669D3003469D3003669D300A469D30077
:10452000A669D300B469D300B669D300246DD30063
:10453000266DD300346DD300366DD300A46DD30047
:10454000A66DD300B46DD300B66DD3002449DA0054
:104550002649DA003449DA003649DA00A449DA009B
:10456000A649DA00B449DA00B649DA00244DDA0087
:10457000264DDA00344DDA00364DDA00A44DDA006B
:10458000A64DDA00B44DDA00B64DDA002469DA003F
:104590002669DA003469DA003669DA00A469DA00DB
:1045A000A669DA00B469DA00B669DA00246DDA00C7
:1045B000266DDA00346DDA00366DDA00A46DDA00AB
:1045C000A66DDA00B46DDA00B66DDA002449DB00BE
:1045D0002649DB003449DB003649DB00A449DB0017
:1045E000A649DB00B449DB00B649DB00244DDB0003
:1045F000264DDB00344DDB00364DDB00A44DDB00E7
:10460000A64DDB00B44DDB00B64DDB002469DB00BA
:104610002669DB003469DB003669DB00A469DB0056
:10462000A669DB00B469DB00B669DB00246DDB0042
:10463000266DDB00346DDB00366DDB00A46DDB0026
:10464000A66DDB00B46DDB00B66DDB00EC2A00006C
:10465000CE2A0000882A0000A6290000882A00002F
:10466000C02A0000882A0000A6290000CE2A0000E7
:10467000CE2A0000C02A0000A62900009E290000C2
:104680009E2900009E290000042D00004C330000EC
:104690000C3200000C32000008320000243300000D
:1046A00024330000163300000832000024330000D9
:1046B0001633000024330000083200002C330000C1
:1046C0002C3300002C33000030350000D8010020CE
:1046D000F8B5C046F8BC08BC9E467047393F00009C
:1046E000E1000000F8B5C046F8BC08BC9E46704723
:0446F000B90000000D
:1046F400300000002101000000000000AD020000B5
:1047040030000000210100000900000075020000D3
:1047140030000000210100000800000075020000C4
:1047240030000000210100000700000075020000B5
:1047340030000000210100000600000075020000A6
:104744003000000021010000050000007502000097
:104754003000000021010000040000007502000088
:104764003000000021010000030000007502000079
:10477400300000002101000002000000750200006A
:10478400300000002101000001000000750200005B
:10479400300000002101000000000000750200004C
:1047A40011000000190100000100000005030000D1
:1047B40011000000190100000100000005030000C1
:1047C40011000000190100000100000005030000B1
:1047D400110000001D01000001000000050300009D
:1047E400110000001901000002000000C5030000D0
:1047F4001100000019010000020000008503000000
:10480400110000001901000002000000450300002F
:10481400110000001901000002000000050300005F
:1048240010000000210100000000000055020000FB
:104834001000000021010000000000000D02000033
:10484400100000002101000000000000F50100003C
:10485400100000002101000000000000DD01000044
:10486400120000002101000000000000AF01000060
:10487400120000002101000000000000810100007E
:10488400120000002101000000000000530100009C
:1048940012000000210100000000000025010000BA
:1048A40001000008010000000100000000000000F9
:1048B4000100000000000000000000001E00BC0217
:1048C400140078050000000000000000C40400206B
:1048D4002C050020940500200000000000000000CA
:1048E40000000000000000000000000000000000C4
:1048F40000000000000000000000000000000000B4
:1049040000000000000000000000000000000000A3
:104914000000000000000000000000000000000093
:104924000000000000000000000000000000000083
:104934000000000000000000000000000000000073
:104944000000000000000000000000000000000063
:104954000000000000000000000000000000000053
:104964000000000000000000000000000000000043
:1049740001000000000000000E33CDAB34126DE6E0
:10498400ECDE05000B000000000000000000000049
:104994000000000000000000000000000000000013
:1049A4000000000000000000000000000000000003
:1049B40000000000000000000000000000000000F3
:1049C40000000000000000000000000000000000E3
:044CF400240F002069
:00000001FF
