:10000000F81F0020F5030000F1030000F1030000D9
:1000100000000000000000000000000000000000E0
:10002000000000000000000000000000F1030000DC
:100030000000000000000000F10300004D1200006D
:10004000F1030000F1030000F1030000F1030000E0
:10005000F1030000F1030000C9050000F1030000F6
:10006000F1030000F1030000F1030000F1030000C0
:10007000F1030000F1030000F1030000F1030000B0
:10008000F1030000F1030000F1030000F1030000A0
:10009000F1030000F1030000F1030000F103000090
:1000A000F1030000F1030000F1030000F103000080
:1000B00000000000F103000010B5064C2378002B6F
:1000C00007D1054B002B02D0044800E000BF0123FC
:1000D000237010BDA005002000000000E42E0000E9
:1000E000084B10B5002B03D00749084800E000BFBB
:1000F00007480368002B00D110BD064B002BFBD036
:100100009847F9E700000000A4050020E42E000055
:10011000E42E000000000000194B186A8021C9017C
:1001200002000A431A62174B5A883F2082431D205F
:1001300002435A805A88144802405A805A88114310
:100140005980124A5A80124B1A8892B21A801A8821
:1001500020210A4392B21A801A88E021C9000A437A
:100160001A800C4AD021535C0120034353541839A0
:10017000535C0F2083430420034353547047C0460D
:1001800000040040000C0040FFF0FFFF1D40000095
:10019000003800420044004110B54B1E9BB20A4A91
:1001A000934210D800280ED0084B188059800122A5
:1001B0001A710748074B984780B2074B18831A8873
:1001C00002210A431A8010BD8D5B0000BC0500208F
:1001D0008E5B0000091E000000380042094B1B79AD
:1001E000002B0ED0074A1388013B9BB21380002BD3
:1001F00007D1054A138802218B4313800022014B4B
:100200001A717047BC050020003800423A494A681C
:100210001E239A431C3B13434B60384A93690821C1
:100220000B439361364B374A9A829A8A02210A43DA
:100230009A82334BDB689B07FBD50122324B1A7045
:10024000314B1B78DB0704D52F4B5B785BB2002B5F
:10025000F6DB01222C4B9A602B4B5B785BB2002BB8
:10026000FADB2A4A284B5A60274B5B785BB2002B9B
:10027000FADB8222D201244B5A80234B5B785BB29B
:10028000002BFADB02221E4B9A841D4BDB68DB0637
:10029000FBD51F4A1A4BDA62194BDB68DB06FBD52C
:1002A000174A938C1B490B439384154BDB68DB0681
:1002B000FBD5134A938C02210B439BB29384104BC2
:1002C000DB681B06FBD50E4BDB685B06F7D50C4BDA
:1002D000DB68DB06FBD500220B4B9A600A4B5B7890
:1002E0005BB2002BFADB0C4A074B5A60064B5B787B
:1002F0005BB2002BFADB7047004000410004004075
:10030000000800400C060000000C00400105010040
:10031000B905FF7D040A00000007030001207047B3
:1003200000207047012070474B7A012B0AD0002B28
:1003300005D0022B09D0032B0AD0002070470123DF
:100340004B72FAE700234B72F7E703234B72F4E793
:1003500002234B72F1E74B7A012B0AD0002B05D018
:10036000022B09D0032B0AD00020704702234B72C6
:10037000FAE702234B72F7E700234B72F4E70023FE
:100380004B72F1E78B78012B08D0002B03D0022BA6
:100390000CD00020704701238B70FAE70B78002BFC
:1003A00002D100238B70F4E70223FBE700238B705C
:1003B000EFE70000F8B504000B79012B01D0002015
:1003C000F8BD094D0269436941680068A847060005
:1003D0000F00A269E369A068E168A847266067602A
:1003E000A060E160EBE7C046E11F0000002070471D
:1003F000FEE70000F8B5234A234B9A4209D0224B6E
:10040000204A03E011681960043304321F498B420B
:10041000F8D31F4B02E000221A6004331D4A9342B6
:10042000F9D31D4AFF211D4B8B439360FD39902367
:100430005B001B4AD1501B4AD3780325AB430224EF
:100440002343D370D3780C27BB4308263343D370A0
:10045000154B987B30229043202210439873997B50
:10046000B943314399739A7BAA4322439A730F4A43
:10047000516880230B4353600D4B98470D4B9847B1
:10048000FEE7C046E42E0000000000209405002096
:10049000A0050020F40F002000ED00E000000000A7
:1004A0000070004100500041004800410040004100
:1004B0003D260000A1160000154B1B68002B26D11D
:1004C000144BD96910220A43DA61596920220A4380
:1004D0005A610F4A110010310F4B5963110030312E
:1004E0009963188880214900014319801888802168
:1004F00089000143198018888021C90001431980AF
:100500001888802109010143198001231360704775
:10051000D0050020000400400048004170B50400F0
:100520001F4B1B889B0704D51D4A13880220834359
:1005300013801B4B1B889B07FBD41A4E356D300074
:1005400010302B02C0181022174B98476B1C3365D4
:10055000134B3F201A5C0F2129400F25AA430A4361
:100560001A54596C602291435964596C0F4A1140D6
:10057000802212040A435A6420405A6C00020C493B
:100580000A401043586440215A5C02242243D2B2EC
:100590005A544D201A5C22431A54064B196070BD00
:1005A00000480041D005002085260000FFFF3FFFE6
:1005B000FFC0FFFF00E100E0024A138802210B4365
:1005C000138070470048004130B5002200E001323E
:1005D000124B1B6D9A421FDA11493F240B5D0F200D
:1005E00010400F25AB4303430B554E23CB5C9B07B9
:1005F000EDD54D23CB5C9B07E9D53F23CB5C1B0797
:10060000E5D14E33C85C02242043C85440200B5C23
:100610002343DBB20B54DAE730BDC046D0050020DF
:100620000048004100280BD1002A04D001238B4050
:100630000B4A136006E001238B400A4A136001E075
:10064000012800D07047002A04D101238B40064ABC
:100650001360F7E701238B40044A1360F2E7C046BA
:10066000184400411444004194440041984400411E
:1006700000281FD1012A0ED001238B401E4A13608F
:10068000C0011E4B9C466044411840310B78022249
:1006900013430B70704701238B40194A1360C0014C
:1006A000164B9C466044411840310B78022293431C
:1006B0000B70EFE70128EDD1012A0ED001238B400A
:1006C000104A1360C0010D4B9C46604441184031F4
:1006D0000B78022213430B70DCE701238B400A4A9C
:1006E0001360C001054B9C466044411840310B78B3
:1006F000022293430B70CDE70444004100440041C3
:10070000084400418444004188440041012800D944
:100710007047531E9A41C001054B9C4660444118E6
:1007200040310B789201402083431A430A70EFE76F
:100730000044004110B5012800D910BD022A0CD098
:10074000012A18D0C001134B9C4660444118403127
:100750000B78042293430B70EFE7C0010D4B9C46CE
:100760006044431840331A78042422431A7001234A
:100770008B404361E1E7C001064B9C46604443184F
:1007800040331A78042422431A7001238B4083617A
:10079000D3E7C04600440041002809D001280FD10A
:1007A000A023094AD35888401840431E98417047F7
:1007B000054B1B6A013088401840431E9841F6E7FC
:1007C00001204042F3E7C0460044004110B5012239
:1007D0000E2101200F4CA04701220F210120A0472C
:1007E00001221B210020A04701221C210020A0473C
:1007F00000220E210120084CA04700220F210120D9
:10080000A04700221B210020A04701221C2100201C
:10081000A04710BD710600002506000070B5837862
:10082000012B1BD0002B1DD0022B19D00025C16835
:10083000002919D010232B435BB2DDB2427A012A82
:100840001CD0002A12D0022A1CD0032A1ED001225A
:100850001C2100202B4B9847002635E04025E6E779
:100860002025E4E78025E2E70023E4E7002903D020
:1008700010251D43EDB2EAE70825FAE704231D43DE
:10088000EDB2E4E702231D43EDB2E0E701231D438F
:10089000EDB2DCE700220F2101201A4CA047012213
:1008A0002A400E210120A047C046C046C046C0468F
:1008B000C04601220F210120A047C046C046C046C5
:1008C000C046C0466D080136072EE3DD00221B211D
:1008D00000200C4CA047C046C046C046C046C0469B
:1008E00001221B210020A047C046C046C046C0468A
:1008F000C04600221B210020A04700221C2100200E
:10090000A04770BD2506000000B583B04B7A012BCF
:100910002DD0002B09D0022B2FD0032B33D0032254
:100920001C4968461C4B98470DE0CB68002B18D03B
:1009300003221A4901A8184B984701AB1A88694647
:100940000A809B788B706B461B786A46527812023D
:10095000FF2018406B469B781B041043184303B0DC
:1009600000BD03220E4901A80B4B9847E5E703227F
:100970000C496846084B9847E5E703220A49684650
:10098000054B9847DFE7032208496846024B984722
:10099000D9E7C04630290000852600002C29000038
:1009A0000C2900000829000004290000002900008B
:1009B00000B583B08B78012B1AD0002B07D0022B07
:1009C0001CD00322104901A8104B984704E00322D1
:1009D0000F4901A80D4B984701AB19785A781202BC
:1009E000FF2008409B781B041043184303B000BD50
:1009F0000322084901A8054B9847EDE70322064961
:100A000001A8024B9847E7E730290000852600003F
:100A1000FC280000F8280000F428000000B583B08E
:100A20004B79002B0ED08B79002B05D003220F4978
:100A300001A80F4B98470AE003220E4901A80C4B6E
:100A4000984704E003220C4901A8094B984701A9E3
:100A50000B881A0A1202FF20184010438A781204E9
:100A6000064B1840104303B000BDC04620290000CB
:100A700085260000282900002C290000FFFF00FF28
:100A800000B583B08B79002B0ED04B79002B05D0AD
:100A900003220F4901A80F4B98470AE003220E4991
:100AA00001A80C4B984704E003220C4901A8094B0C
:100AB000984701A90B881A0A1202FF201840104318
:100AC0008A781204064B1840104303B000BDC0469C
:100AD0002029000085260000242900002C29000080
:100AE000FFFF00FFF0B5D6464F464646C0B5FD4C69
:100AF0001C2200212000FC4B9846984720001C3007
:100B00001C220021C047F94B9A4623003833524635
:100B100023CA23C323CA23C312681A60F44B1B6879
:100B2000A36501265423E6540025E5652566656620
:100B3000393BA366EF4BE366EF4B1B686367EF4BF4
:100B40001B68A3677023E654E5671033E550043350
:100B50001C22E250EA4A0433E25020008C301C226E
:100B60000021C0472000A8301C220021C0472300DC
:100B7000C43352461C3283CA83C383CA83C31268F8
:100B80001A602300E0335246383283CA83C383CAD3
:100B900083C312681A602300FC335246543283CA5E
:100BA00083C383CA83C312681A600923994610332A
:100BB000FF334A46E2540433E5500433E55004332E
:100BC000E5500433E5500433E5500433E55022008A
:100BD0003532FF32574670370BCF0BC20BCF0BC2EB
:100BE0003B681360C74B1A68A8235B00E6540433C4
:100BF000E5500433E2500433E5500433E5500E224F
:100C00000433E2500433E550BF4B9A4623006D3362
:100C1000FF3352460C3283CA83C383CA83C312682C
:100C20001A6020008930FF301C220021C047B74BDA
:100C30001B689C46B64B1868B64B1968B64B1A68C9
:100C4000D2235B00E65404336746E7500433E05098
:100C50000433E1500433E2500433E6500433E550EA
:100C6000AE4B1A68E0235B00E6540433E2500433D1
:100C7000E5500433E5500433E5500A220433E250D2
:100C80000433E550A64B1A68EE235B00E6540433A8
:100C9000E2500433E5500433E5500433E5500F22AD
:100CA0000433E2500433E5509E4B19689E4B1A689A
:100CB000FC235B00E6540433E1500433E250043378
:100CC000E5500433E55018220433E2500433E55074
:100CD000964B1A6885239B00E6540433E250043394
:100CE000E5500433E5500433E5501E220433E2504E
:100CF0000433E5508E4B1B689C468E4B18688E4B18
:100D000019688E4B1A688C239B00E654043367469F
:100D1000E7500433E0500433E1500433E250022240
:100D20000433E2500433E550854B1A6893239B004B
:100D3000E6540433E2500433E5500433E550043301
:100D4000E55004334A46E2500433E5507D4B1A68BF
:100D50009A239B00E6540433E2500433E5500433F5
:100D6000E5500433E55010220433E2500433E550DB
:100D7000754B1968754B1A68A1239B00E654043320
:100D8000E1500433E2500433E5500433E5501722B8
:100D90000433E2500433E5500433E01805320021F7
:100DA000C0476B4B1B689C466A4B18686A4B1968B6
:100DB0006A4B1A68AF239B00E65404336746E7503A
:100DC0000433E0500433E1500433E250032204338F
:100DD000E2500433E550624B1A68B6239B00E65498
:100DE0000433E2500433E5500433E5500433E55056
:100DF00008220433E2500433E5505A4B1A68BD23ED
:100E00009B00E6540433E2500433E5500433E550CC
:100E10000433E55011220433E2500433E550524BC1
:100E20001968524B1A68C4239B00E6540433E150FE
:100E30000433E2500433E5500433E5501622043302
:100E4000E2500433E5504A4B1A68CB239B00E6542A
:100E50000433E2500433E5500433E5500433E550E5
:100E60001F220433E2500433E550424B1968424BD1
:100E70001A68D2239B00E6540433E1500433E25055
:100E80000433E5500433E55004220433E2500433C4
:100E9000E5503A4B19683A4B1A68D9239B00E6543F
:100EA0000433E1500433E2500433E5500433E55099
:100EB00007220433E2500433E550324B1968324BB9
:100EC0001A68E0239B00E6540433E1500433E250F7
:100ED0000433E5500433E55012220433E250043366
:100EE000E55053E00C0B0020092700008429000086
:100EF00078290000B1090000802900007C29000049
:100F000009090000800F0020042A00006829000061
:100F100060290000642900005C2900003C290000D1
:100F20004829000054290000E00A00205829000048
:100F3000F80A0020EC0A0020D80A0020FC0A002051
:100F4000382900004429000050290000E40A00204C
:100F5000900F0020840F0020980F0020040B002029
:100F600034290000402900004C290000D00A00204C
:100F7000F40A0020740F0020940F00206C29000058
:100F80008C0F0020702900006C0F00203A4B1A686B
:100F9000E7239B00E6540433E2500433E550043366
:100FA000E5500433E55015220433E2500433E55094
:100FB0000433E01807320021C047F5239B00E218F4
:100FC000574628370BCF0BC20BCF0BC23B681360C1
:100FD0002A4B19682A4B1A68FC239B00E6540433F9
:100FE000E1500433E2500433E5500433E550062267
:100FF000244BE2500433E550234B1968234B1A6805
:10100000234BE6540433E150224BE2500433E550C5
:10101000214BE55013220433E250204BE550204B86
:101020001968204B1A688523DB00E6541E4BE150FB
:101030000433E2501D4BE5500433E55014221C4BA1
:10104000E2500433E5501B4B19681B4B1A681B4BCD
:10105000E6540433E1501A4BE2500433E550194B87
:10106000E55020220433E250174BE5501CBC90465B
:101070009946A246F0BDC04674290000080B002026
:10108000D40A002004040000880F0020780F0020FC
:101090000C040000140400001C04000024040000E0
:1010A000000B0020DC0A00202C04000034040000A7
:1010B0003C040000F00A0020E80A0020440400007C
:1010C0004C040000540400005C040000F0B5D64657
:1010D0004F464646C0B582B03C4B1B6800200021FD
:1010E0009860D960002206210130394B98470023CF
:1010F00098463DE020234E469B1B9A4601235646C8
:10110000F3409C4601264B469E4033000B431C0097
:10111000634613431D008460C5600137042F1FDC44
:10112000BA002C4B9B18186C596D2B4B9847030039
:10113000264A10688168C268002B0DD043469B0088
:1011400043449946B9444E46203EB246D2D4012685
:1011500053469E40B446D5E700230026B446D5E763
:101160000022019900981A4B984701239C46E044BD
:101170004346072B0EDC174B42469200D15808001D
:1011800000919B181B6A019301221900104B98478C
:101190000027C3E70D4B1B689868D9689C69DD6917
:1011A0000600A6430A00AA431C695D692643300075
:1011B0002A431100186159619868D9689861D9610A
:1011C00002B01CBC90469946A246F0BD28060020FD
:1011D00025060000482A00009907000070B5174B4B
:1011E0001860002408E0164BA200D0589B18196A1A
:1011F0000122144B98470134072CF4DD00240FE042
:10120000A2000F4B9B181D6C5E6D00223100280060
:101210000C4B98470222310028000B4B98470134B1
:10122000042CEDDD054B1B68002000219860D9607F
:10123000186159619861D96170BDC04628060020C7
:10124000482A0000710600003507000010B5114A59
:101250001368013313605168013151600E4A1288DE
:1012600093420AD80B4B5B680A2B0CD80B4B984760
:10127000084A93680133936010BD0022054B1A6041
:10128000074B9847EEE70022024B5A60054B984700
:10129000ECE7C04638060020A00F0020DD0100006A
:1012A000FD1B0000CD10000070B5012216210120A9
:1012B000094CA047012217210120A0470122162135
:1012C0000120064DA847012217210120A84701222D
:1012D00011210120A04770BD710600000D0700001C
:1012E00010B5012211210120014B984710BDC046C5
:1012F0002506000010B5074C2000074B984720003A
:101300001030064B9847064B9847064B9847064BBC
:10131000984710BDA00F0020D91D0000DD1100006E
:10132000E50A000019010000CD07000010B5044BCC
:101330009847044B98470448044B984710BDC04653
:10134000E1120000B5170000400100204D19000017
:1013500030B583B000244BE05D4B5B7A002B21D08D
:101360005B4A927A002A1DD0E3001B1B9A00594B5E
:101370009B181B69002B07D05B68002B04D05449D5
:101380000431554810309847002805D003225349AE
:1013900001A8534B98471EE00322524901A8504B25
:1013A000984718E0002B4AD0E3001B1B9A00494BDA
:1013B0009B189B68002B07D05B68002B04D0444926
:1013C0000431454810309847002832D0032246495E
:1013D00001A8434B984701A98B784A780978E00027
:1013E000001B85003B4840194069404DA847013427
:1013F000272C64DCE3001B1B9A00364BD05C0028D2
:10140000F5D00F239843431E9841C0B2314B9B182F
:101410009B69002BA0D02E4904312F4810309847EB
:1014200001AB18700204120E5A700002000E987080
:10143000D1E703222E4901A8294B9847CBE7244B3B
:101440009B7A002B1DD0E3001B1B9A00214B9B189D
:10145000DB68002B07D05B68002B04D01C490431EB
:101460001D4810309847002805D00322214901A8C3
:101470001B4B9847AFE703221F4901A8184B984719
:10148000A9E7E3001B1B9A00124B9B185B68002B1B
:1014900007D05B68002B04D00D4904310E48103092
:1014A0009847002805D00322144901A80C4B9847FF
:1014B00091E70322124901A8094B98478BE7114B8A
:1014C000984703480430104B984703B030BDC046DE
:1014D000400100200C0B00203806002020290000CD
:1014E000852600001029000028290000811700002F
:1014F0001829000024290000142900002C290000CC
:101500001C290000711800001D08000070B5404B38
:10151000186A596A002400251C625D6200234CE0B1
:101520002022D21A0C0094400200DA4022434DE0FF
:101530003849497A002957D10F3A364B5A72E1217E
:10154000C9000C20344B984700205FE0314A927A62
:10155000002A4BD101322F4B9A72E121C9000C2095
:101560002D4B9847002051E0002A0FD0D900CB1A0C
:1015700099002A4B5B189868012A19D0254B9B7A51
:10158000012B43D10222234B9A723FE02149897AF1
:10159000002906D0D900CB1A9900204B5B18D868D7
:1015A000EAE7D900CB1A99001C4B5B185868E3E7AF
:1015B0000132184B5A72E1E70133272B25DC202238
:1015C00052429A18ACD40C00D4402200D207F3D572
:1015D000DA00D21A9400114AA25C002AECD00F2142
:1015E0008A4303D0102AA3D0202AAFD0094A527AC6
:1015F000002AB9D00749897A0029B5D0D900CB1A79
:101600009900064B5B181869B6E7002070BDC0460C
:10161000A00F002040010020990100000C0B0020C9
:1016200030B585B004004368002B06D0174904315B
:10163000174810309847002806D19621890050207D
:10164000144B984705B030BDE121C9000C20114B67
:10165000984723780F229343102B10D0202BF1D0E2
:10166000302BEFD101A80C4B020022CB22C21B88E9
:101670001380A36830338370084B9847E2E7E36830
:1016800002490431024810309847DBE7400100204E
:101690003806002099010000B02A000095190000CA
:1016A00070B52A4B9847012216210120284CA047EB
:1016B000012217210120A047264B9847264B984727
:1016C000264B9847264A274B53602748036A1B023C
:1016D0001B0AC02109060B430362002393600733F2
:1016E0001360002217210120A04715E01F4B9A69C3
:1016F000DB6980239B00134212D100221C4B5A72DB
:101700000EE01A4B9A69DB691B070DD40022184BB7
:101710009A7209E0174B9847154B5B7A022BE5D07C
:10172000134B9B7A022BECD0134B9847041EF1D03D
:10173000012217210120064DA84720000F4B984792
:10174000002217210120A847E4E7C046A9120000A3
:10175000250600000D020000F51200002D13000008
:1017600010E000E0BF12000000ED00E0A00F00203C
:1017700040010020511300000D150000211600004B
:1017800010B5202807D844002018034C2254421CCE
:10179000A1540230235410BDD0080020002303E0E0
:1017A0000021034AD1540133622BF9DD7047C04652
:1017B000D008002000B585B0244B9847002305E0F1
:1017C000234AD2180020642150540133C122520010
:1017D0009342F5D91F4B02931D4BE833FF3301931E
:1017E000002303936B461B881B4A13406A461380F1
:1017F00013881A4A13406A46138012888023DB003C
:1018000013436A461380128880235B0113436A46A0
:1018100013801388DB04DB0C138013881822934396
:101820006A4613808423FF335380138801221343B5
:101830006A4613800A4B984769460620094B984729
:10184000094B9847094B984705B000BD9D1700000C
:10185000D008002028100042FFFCFFFFFFF7FFFF29
:10186000B90400001D050000B9050000911A000030
:1018700070B50022002111E00A4B585C80000A4C30
:101880000459260C64209D182E54551C260A5D19F7
:101890002E54951C5B191C54013103326229EBD97B
:1018A00070BDC046D0080020BC2A0000F0B500245E
:1018B000002116E04B00C3181A880D4D2A55671CED
:1018C0001B881B0A0F221A404B1C5B00C3181E8882
:1018D00036013243EA55A21C1B881B09AB54023166
:1018E00003340729E6DD028A014B1A73F0BDC046B6
:1018F000B80A002010B50C2110E01148836A114A83
:10190000525C5B0A5B021A4382620D4B1B7EDB0753
:10191000FBD50B4B1B7E9B07F7D501390029ECDA71
:10192000002205210120084CA047C046C046C04601
:10193000C046C046012205210120A04710BDC04677
:10194000001C0042B80A00202506000010B50B4C10
:101950002061012205210120094B98470122052120
:101960000120084B9847084B98470D220021200082
:10197000064B9847064B984710BDC046B80A002052
:1019800071060000250600003D1B0000092700002D
:10199000F5180000F0B5CE46474680B587B0050083
:1019A0001222002101A8364B98470721002000236E
:1019B00099460CE001234F006246134301AABB5233
:1019C00001392378202B01D00123994601300029C9
:1019D0004BDB2C182378002B47D01A00303AD2B2B8
:1019E000092A0BD84A0001AFD25F9446302BE1D0D0
:1019F000303B8022D2001A411300DCE72E2B25D089
:101A00000AD8202B20D02D2BDBD14B46002BD8D150
:101A1000022201AB1A82D4E75B2B0BD05D2BD0D115
:101A200001AA4F00BB5A9C4680231B0166463343E4
:101A3000BB52C6E701AA4F00BB5A9C468023DB007D
:101A400066463343BB52BCE70139BAE70D4B1F6909
:101A50007B8801AA4E00B446B65A33436646B35259
:101A60003B78002BADD00139ABE701A8064B984776
:101A7000064B984707B00CBC90469946F0BDC0464F
:101A800009270000B80A0020AD180000F518000072
:101A9000214A116A10230B431362204B5A883F21BD
:101AA0008A4316210A435A805A881D490A405A809F
:101AB00059888022D2010A435A801A4A4C21535C29
:101AC0000120034353541639535C0F2083430220F3
:101AD00003435354144B1968144A0A401A60196896
:101AE000134A0A401A601968124A0A401A601968B3
:101AF000114A0A401A6019681C229143103A0A439D
:101B00001A60596807229143596009221A731A68AA
:101B100002210A431A60704700040040000C004094
:101B2000FFF0FFFF0044004100100042FFFFFCFFF8
:101B3000FFFFFFEFFFFFFFDFFFFFFFBF10B5274AEB
:101B4000116A80230B431362254B5A883F218A4335
:101B500019210A435A805A8822490A405A805988D2
:101B60008022D2010A435A801F4BDE22995C012455
:101B700021439954BF215A5C0F2082430320024322
:101B80005A54DF201A5C22431A54585C0F22024038
:101B9000302002435A54154B1968154A0A401A60FE
:101BA0001968144A0A401A601968134A0A401A60F0
:101BB00019681C229143103A0A431A605968072297
:101BC0009143596027221A731968253A0A431A600B
:101BD000064BDB699B07FBD410BDC04600040040E8
:101BE000000C0040FFF0FFFF00440041001C0042D9
:101BF000FFFFFCFFFFFFFFDFFFFFFFBFF8B5012284
:101C000003210120464CA047012202210120A047C8
:101C1000012201210120A047012200210120A0472B
:101C2000404D2B689A789B18DA78012601277A4074
:101C3000324010210020A0472B689A789B18DA7850
:101C400052087A40324011210020A0472B689A7830
:101C50009B18DA7892087A40324012210020A0477F
:101C60002B689A789B18DA78D2087A403240132190
:101C70000020A0472B689A789B18DA7812097A40DE
:101C8000324015210020A0472B689A789B18DA78FB
:101C900052097A4032400F210020A0472B689A78E1
:101CA0009B18DA7892097A40324016210020A0472A
:101CB0002B689A789B18DA7852B2D243D20F172148
:101CC0000020A0472B689A78531E9A4103210120D7
:101CD000A0472B689A78013A531E9A4102210120AD
:101CE000A0472B689A78023A531E9A41012101209D
:101CF000A0472B689A78033A531E9A41002101208D
:101D0000A0472A6893780133DBB293709178C9B207
:101D100013890433994201DB00239370F8BDC04658
:101D200025060000CC0A002070B501220321012005
:101D3000274CA047012202210120A04701220121B6
:101D40000120A047012200210120A04701221021EB
:101D50000020204DA847012211210020A847012280
:101D600012210020A847012213210020A8470122A8
:101D700015210020A84701220F210020A847012299
:101D800016210020A847012217210020A847012280
:101D900010210020A047012211210020A04701228C
:101DA00012210020A047012213210020A047012278
:101DB00015210020A04701220F210020A047012269
:101DC00016210020A047012217210020A04770BD46
:101DD000710600000D07000010B5094B18601023B4
:101DE00003800023837003E0C2180021D170013307
:101DF000032BF9DD00230381024B984710BDC04639
:101E0000CC0A0020291D000003460B437FD400228A
:101E100043088B4274D303098B425FD3030A8B427E
:101E200044D3030B8B4228D3030C8B420DD3FF22E8
:101E3000090212BA030C8B4202D31212090265D0B6
:101E4000030B8B4219D300E0090AC30B8B4201D369
:101E5000CB03C01A5241830B8B4201D38B03C01AB0
:101E60005241430B8B4201D34B03C01A5241030B27
:101E70008B4201D30B03C01A5241C30A8B4201D3D8
:101E8000CB02C01A5241830A8B4201D38B02C01A83
:101E90005241430A8B4201D34B02C01A5241030AFA
:101EA0008B4201D30B02C01A5241CDD2C3098B42DF
:101EB00001D3CB01C01A524183098B4201D38B015C
:101EC000C01A524143098B4201D34B01C01A5241FF
:101ED00003098B4201D30B01C01A5241C3088B4244
:101EE00001D3CB00C01A524183088B4201D38B002F
:101EF000C01A524143088B4201D34B00C01A5241D1
:101F0000411A00D201465241104670475DE0CA0FA7
:101F100000D04942031000D34042534000229C4667
:101F200003098B422DD3030A8B4212D3FC22890171
:101F300012BA030A8B420CD3890192118B4208D347
:101F4000890192118B4204D389013AD0921100E0A9
:101F50008909C3098B4201D3CB01C01A52418309BD
:101F60008B4201D38B01C01A524143098B4201D3EA
:101F70004B01C01A524103098B4201D30B01C01A15
:101F80005241C3088B4201D3CB00C01A524183088F
:101F90008B4201D38B00C01A5241D9D243088B42E5
:101FA00001D34B00C01A5241411A00D20146634688
:101FB00052415B10104601D34042002B00D54942EC
:101FC000704763465B1000D3404201B5002000F02B
:101FD00005F802BD0029F8D016E770477047C046E3
:101FE000F8B54546DE4657464E460C03E0B54E0072
:101FF000C90F88460D00610A440F0C43C70019033E
:102000005800DB0F9B464B0A510F0B43760D400DDA
:102010001900D200D84500D1AEE0351A002D00DC01
:10202000F6E000280FD1134300D1DBE06B1E002B3C
:1020300000D037E1BA1A9742BF41641A7F42E41BCD
:102040000126170024E0C64B9E424DD080231B047E
:102050001943382D00DD07E11F2D00DD38E1202078
:10206000431B9A460B00504683409946130048464E
:10207000EB401843030050468240501E8241E94025
:102080001A43BA1A611A9742A441170064420C1B02
:10209000230262D56402650A002D00D1DFE028002A
:1020A00000F0AEFA0300083B1F2B00DDD2E0202237
:1020B0003C00D21A9D40D4409F4025439E4200DD03
:1020C000C4E09E1B731C1F2B00DDF1E020223800B2
:1020D0002900D21AD840914097402C000143781E25
:1020E0008741DC4000260F437B0709D00F233B408C
:1020F000042B05D03B1DBB42BF417F42E4191F00AA
:1021000023022CD5964B01369E4200D19AE04546DB
:10211000944BFF081C406007760564020743240BBC
:10212000760D00212403230B0C0D8F4A24051C433C
:102130001440330523435B00ED075B082B43380055
:1021400019003CBC90469946A246AB46F8BD644691
:10215000044300D111E2040067467B07C6D145461F
:102160006007FF080743E4087D4B9E4230D02403FC
:102170007605240B760DD4E7331A9A46002B78DDCA
:10218000002831D076488642AED08020000401433A
:102190005346382B00DCE9E00A43511E8A410021F6
:1021A000D219BA42BF4109197C4217000C19230207
:1021B000D3D56B4B01369E4200D13AE10120694BE9
:1021C0001C407B0807401F43E007074364088BE778
:1021D00023003B4300D1CBE18022120314432403AC
:1021E000240B9EE72E007FE70800104300D1B4E0E7
:1021F000581E002800D0DEE0BA18BA429B4164188D
:102200005B42E418170001262302A6D50226D5E773
:10221000002D6ED1701C4005400D012800DCF9E056
:10222000B81A844687428041E51A40422D1A280296
:1022300000D489E0D71BBA4292411C1B5242A51A16
:10224000D84629E74546002400276AE7454CF61A98
:102250002C4049E73D002838854000272EE738000C
:1022600000F0CEF920301DE70A43511E8A410021BB
:1022700007E7002B00D0F3E0701C43055B0D012B3A
:1022800000DCADE0364B984200D1D1E0BA18BA423A
:10229000BF4164187F42E419E707520817436408F6
:1022A000060021E72E48854200D193E01D00D0E6CC
:1022B00029001F3EF140202B00D18DE04022D31A8F
:1022C0009D402F437D1EAF4100240F43002644E76D
:1022D0002B000800203BD8400300202D00D17DE0DA
:1022E0004020451BA9400A43511E8A4100211A4340
:1022F000C7E6002E50D01A4EB04257D080266B420F
:102300009946360434434B46382B00DDD6E01F2B6C
:1023100000DD35E12026F51A2600AE40B2463E002B
:10232000DE40AC46350056462E436546AF407D1E26
:10233000AF41DC403743D71BBA4292410C1B52429B
:10234000A41A0600D846A3E6644667462C4300D08C
:10235000A2E600250026002706E71E00C4E6C046C8
:10236000FF070000FFFF7FFFFFFF0F801F2B63DCD5
:102370002020C31A080098409C468346534610000C
:10238000D84003005846184363469A40531E9A416A
:1023900053460243D94003E726003E4306D0EB43B1
:1023A0009946002BC7D0944EB042ACD10C00170018
:1023B0000600D84698E6904B9A450BD08246E7E651
:1023C000002800D09EE01800104300D1E9E01C0076
:1023D0001700D846884E87E6002572E7002182E77D
:1023E00023003B43002E00D0ABE0002B00D1E7E000
:1023F0000B00134300D177E6BA18BA42BF41641804
:102400007F42E419230200D4F2E07C4B17001C4009
:10241000060069E620003843002ED1D100285BD1A8
:102420001C00144300D1A8E01C001700D8465BE64E
:1024300006000024002797E650460B002038C340D2
:1024400099465346202B00D195E0402350461B1A55
:1024500099400A43511E8A414B4600211A439FE688
:10246000002E30D126003E4367D0DB439A46002B36
:102470001CD0614EB04260D05346382B00DD96E050
:102480001F2B00DD9FE02026F31A26009E409C466D
:10249000B34653463E00DE4033005E461E4363466D
:1024A0009F407B1E9F415346DC403743BF189742F5
:1024B000924164185242A418060078E627437C1E15
:1024C000A741002437E74C4EB04236D080265B420D
:1024D00036049A463443CFE71800104300D103E690
:1024E000B81A84466745AD41E01A6D42401B0502AB
:1024F00000D42CE6D71BBA4292411C1B5242A41AAC
:10250000D846F1E51800104300D163E7F8086707E3
:1025100007438020E4080003044208D0DD08054298
:1025200005D1D208590711430F002C00D8467B0F64
:10253000E4001C43FF00304ED6E50C0017000600F7
:10254000D2E5002B38D00B00134300D142E7F80846
:10255000670707438020E40800030442E7D0CB0864
:102560000342E4D1D208490711430F001C00DEE703
:1025700000270024D5E500216BE700250027F3E5BF
:102580004E462500203EF5404B462E00202B2DD0F8
:102590004025ED1AAC4027437C1EA7410024374359
:1025A000C9E6802400252403134E0027DCE52743D9
:1025B0007C1EA741002479E70C0017000E4E93E51E
:1025C0000C00170090E556462300203EF340994644
:1025D0005346202B0ED0402356469B1B9C4027433E
:1025E0007C1EA7414B4600241F435FE70024D2E72F
:1025F0001700B2E50024F2E7FF070000FFFF7FFFAE
:102600001C2101231B04984201D3000C10391B0A22
:10261000984201D3000A08391B09984201D30009E6
:10262000043902A2105C40187047C046040302023D
:1026300001010101000000000000000070B50D4E16
:102640000D4D0024AD1BAD1005D0A300F35801348F
:102650009847A542F9D100F033FC084E084D0024FC
:10266000AD1BAD1005D0A300F35801349847A54227
:10267000F9D170BDCC2E0000CC2E0000CC2E000075
:10268000D42E0000F0B505000F2A2FD90B0003430C
:102690009B0734D116000C000300103E35090135AC
:1026A0002D01451927681F6067685F60A7689F60F4
:1026B000E7681034DF6010339D42F3D10F239E434F
:1026C0001036851989191340032B1AD91E1F0023B0
:1026D000B4080134A400CF58EF500433A342FAD118
:1026E0000324A643331D2240C918ED18002A05D043
:1026F0000023CC5CEC5401339342FAD1F0BD0500C9
:10270000F6E71A00F2E7C046F0B5830743D0541E3F
:10271000002A3FD0CEB20200032502E01A00013C9D
:1027200038D3531C16702B42F8D1032C2AD9FF2220
:102730000A40150215432A0415430F2C14D927000B
:102740001A00103F3E09013636019E19156055608A
:102750009560D56010329642F8D10F22974310371A
:10276000DB191440032C0DD91A00271FBE080136AF
:10277000B6009E1920C2B242FCD10322974304370F
:10278000DB191440002C05D0C9B21C191970013393
:102790009C42FBD1F0BD14000300C6E7034B10B50B
:1027A000002B02D0024800F005F810BD0000000028
:1027B000C527000010B5010000230022002000F012
:1027C0001FF810BD70B5094B094CE41AA41009D0CC
:1027D000084AA518AD00ED182B68013C9847043D48
:1027E000002CF9D100F076FB70BDC046E02E000051
:1027F000E42E0000FFFFFF3F7047C0467047C04611
:10280000F0B54E464546DE465746E0B5364D83B0F8
:102810000600286898460F009146FFF7EDFF334BFE
:102820001C68A4235B00E058002852D043681F2B8B
:1028300013DC5A1C0192002E28D1019A02339B000E
:1028400042601F502868FFF7D9FF002003B03CBC4E
:1028500090469946A246AB46F0BD254B002B3DD095
:10286000C820400000E000BF002837D0A422002389
:102870005200A15843600160A0504032835004329E
:102880008350013301930023002ED6D09A00924644
:1028900082444A46882154466250C42252009146DE
:1028A00081444A468739994012688B460A439446C8
:1028B0004A4661461160842241465200A150022ED0
:1028C000BBD102005C468D32FF3211680C431460AC
:1028D000B3E720004D30FF30E050A7E72868FFF74E
:1028E0008DFF01204042B1E790050020BC2E000082
:1028F0000000000032BE0000C82800000040C800F0
:10290000D200000032BE0000C82800000040C8000D
:102910000006040000070000000208000303030093
:1029200000C8A00000D200000040C8003C3C3C00B1
:102930000501000000000020100000202000002001
:1029400030000020400000205000002060000020E7
:10295000700000208000002090000020A0000020D7
:10296000B0000020C0000020D0000020E0000020C7
:10297000F0000020000100201001002020010020B4
:1029800030010020090000000000000000000000ED
:1029900000000000000000000C000000000000002B
:1029A0000100000000000000000000000000000026
:1029B000000000000D000000000000000100000009
:1029C0000000000000000000000000000000000007
:1029D0001A000000000000001000000000000000CD
:1029E0000000000000000000000000001D000000CA
:1029F0001D0A0000010000000000000000000000AF
:102A000000000000000000000B00000000000000BB
:102A100001000000000000000000000000000000B5
:102A2000000000001900000000000000200000006D
:102A30000000000000000000000000000000000096
:102A400005000000810A00000100000001000000F4
:102A50000100000001000000000000000000000074
:102A60000000000000000000060000000700000059
:102A7000080000000900000004000000050000003C
:102A80000600000007000000000000000000000039
:102A90000100000001000000010000000A00000029
:102AA0000B0000000A0000000B0000000C000000FA
:102AB000202D302E3030303030000000244992007C
:102AC000264992003449920036499200A449920066
:102AD000A6499200B4499200B6499200244D920052
:102AE000264D9200344D9200364D9200A44D920036
:102AF000A64D9200B44D9200B64D9200246992000A
:102B0000266992003469920036699200A4699200A5
:102B1000A6699200B4699200B6699200246D920091
:102B2000266D9200346D9200366D9200A46D920075
:102B3000A66D9200B46D9200B66D92002449930088
:102B4000264993003449930036499300A4499300E1
:102B5000A6499300B4499300B6499300244D9300CD
:102B6000264D9300344D9300364D9300A44D9300B1
:102B7000A64D9300B44D9300B64D93002469930085
:102B8000266993003469930036699300A469930021
:102B9000A6699300B4699300B6699300246D93000D
:102BA000266D9300346D9300366D9300A46D9300F1
:102BB000A66D9300B46D9300B66D930024499A00FE
:102BC00026499A0034499A0036499A00A4499A0045
:102BD000A6499A00B4499A00B6499A00244D9A0031
:102BE000264D9A00344D9A00364D9A00A44D9A0015
:102BF000A64D9A00B44D9A00B64D9A0024699A00E9
:102C000026699A0034699A0036699A00A4699A0084
:102C1000A6699A00B4699A00B6699A00246D9A0070
:102C2000266D9A00346D9A00366D9A00A46D9A0054
:102C3000A66D9A00B46D9A00B66D9A0024499B0067
:102C400026499B0034499B0036499B00A4499B00C0
:102C5000A6499B00B4499B00B6499B00244D9B00AC
:102C6000264D9B00344D9B00364D9B00A44D9B0090
:102C7000A64D9B00B44D9B00B64D9B0024699B0064
:102C800026699B0034699B0036699B00A4699B0000
:102C9000A6699B00B4699B00B6699B00246D9B00EC
:102CA000266D9B00346D9B00366D9B00A46D9B00D0
:102CB000A66D9B00B46D9B00B66D9B002449D200AD
:102CC0002649D2003449D2003649D200A449D20064
:102CD000A649D200B449D200B649D200244DD20050
:102CE000264DD200344DD200364DD200A44DD20034
:102CF000A64DD200B44DD200B64DD2002469D20008
:102D00002669D2003469D2003669D200A469D200A3
:102D1000A669D200B469D200B669D200246DD2008F
:102D2000266DD200346DD200366DD200A46DD20073
:102D3000A66DD200B46DD200B66DD2002449D30086
:102D40002649D3003449D3003649D300A449D300DF
:102D5000A649D300B449D300B649D300244DD300CB
:102D6000264DD300344DD300364DD300A44DD300AF
:102D7000A64DD300B44DD300B64DD3002469D30083
:102D80002669D3003469D3003669D300A469D3001F
:102D9000A669D300B469D300B669D300246DD3000B
:102DA000266DD300346DD300366DD300A46DD300EF
:102DB000A66DD300B46DD300B66DD3002449DA00FC
:102DC0002649DA003449DA003649DA00A449DA0043
:102DD000A649DA00B449DA00B649DA00244DDA002F
:102DE000264DDA00344DDA00364DDA00A44DDA0013
:102DF000A64DDA00B44DDA00B64DDA002469DA00E7
:102E00002669DA003469DA003669DA00A469DA0082
:102E1000A669DA00B469DA00B669DA00246DDA006E
:102E2000266DDA00346DDA00366DDA00A46DDA0052
:102E3000A66DDA00B46DDA00B66DDA002449DB0065
:102E40002649DB003449DB003649DB00A449DB00BE
:102E5000A649DB00B449DB00B649DB00244DDB00AA
:102E6000264DDB00344DDB00364DDB00A44DDB008E
:102E7000A64DDB00B44DDB00B64DDB002469DB0062
:102E80002669DB003469DB003669DB00A469DB00FE
:102E9000A669DB00B469DB00B669DB00246DDB00EA
:102EA000266DDB00346DDB00366DDB00A46DDB00CE
:102EB000A66DDB00B46DDB00B66DDB0068010020A1
:102EC000F8B5C046F8BC08BC9E4670479D27000078
:102ED000E1000000F8B5C046F8BC08BC9E4670474B
:042EE000B900000035
:102EE400300000002503000009000000ED0300008D
:102EF400300000002503000008000000ED0300007E
:102F0400300000002503000007000000ED0300006E
:102F1400300000002503000006000000ED0300005F
:102F2400300000002503000005000000ED03000050
:102F3400300000002503000004000000ED03000041
:102F4400300000002503000003000000ED03000032
:102F5400300000002503000002000000ED03000023
:102F6400300000002503000001000000ED03000014
:102F7400300000002503000000000000ED03000005
:102F8400110000001D03000001000000B503000053
:102F9400110000001D03000001000000B503000043
:102FA400110000001D03000001000000B503000033
:102FB400110000002103000001000000B50300001F
:102FC400110000001D03000002000000B503000012
:102FD400110000001D03000002000000B503000002
:102FE400110000001D03000002000000B5030000F2
:102FF400120000002503000000000000850300000B
:103004001200000025030000000000005703000028
:103014001200000025030000000000002903000046
:103024000100000801000000010000000000000091
:103034000100000000000000000000001E00BC02AF
:103044001400780500000000000000005404002073
:10305400BC04002024050020000000000000000043
:10306400000000000000000000000000000000005C
:10307400000000000000000000000000000000004C
:10308400000000000000000000000000000000003C
:10309400000000000000000000000000000000002C
:1030A400000000000000000000000000000000001C
:1030B400000000000000000000000000000000000C
:1030C40000000000000000000000000000000000FC
:1030D40000000000000000000000000000000000EC
:1030E40000000000000000000000000000000000DC
:1030F40001000000000000000E33CDAB34126DE679
:10310400ECDE05000B0000000000000000000000E1
:1031140000000000000000000000000000000000AB
:10312400000000000000000000000000000000009B
:10313400000000000000000000000000000000008B
:10314400000000000000000000000000000000007B
:04347400D00F002055
:00000001FF
